{
  "transactions": [
    {
      "hash": "0xbcbc2c491f6877f0bc28b93a533f74474fc04848b80bc86cfdade6dc8633b508",
      "transactionType": "CALL",
      "contractName": "MockInvalendProtocol",
      "contractAddress": "0x6912ded3394af5b02edf63e4a05547d5d810c298",
      "function": "resetPositions()",
      "arguments": [],
      "transaction": {
        "from": "0x76bf0f26a080ec0dbe68c842c99b7f6a7cb116db",
        "to": "0x6912ded3394af5b02edf63e4a05547d5d810c298",
        "gas": "0x97b2",
        "value": "0x0",
        "input": "0x3d858692",
        "nonce": "0xc40",
        "chainId": "0x14a34"
      },
      "additionalContracts": [],
      "isFixedGasLimit": false
    },
    {
      "hash": "0x10f83344295e9072a3f0050cd996e19676c1d9d59d1b66ba1fcde85bedf6c323",
      "transactionType": "CALL",
      "contractName": "MockInvalendProtocol",
      "contractAddress": "0x6912ded3394af5b02edf63e4a05547d5d810c298",
      "function": "addPosition(address,uint256,uint256)",
      "arguments": [
        "0x1111111111111111111111111111111111111111",
        "595200000000",
        "800000000000"
      ],
      "transaction": {
        "from": "0x76bf0f26a080ec0dbe68c842c99b7f6a7cb116db",
        "to": "0x6912ded3394af5b02edf63e4a05547d5d810c298",
        "gas": "0x2f0c4",
        "value": "0x0",
        "input": "0xcff07fd100000000000000000000000011111111111111111111111111111111111111110000000000000000000000000000000000000000000000000000008a94af4000000000000000000000000000000000000000000000000000000000ba43b74000",
        "nonce": "0xc41",
        "chainId": "0x14a34"
      },
      "additionalContracts": [],
      "isFixedGasLimit": false
    },
    {
      "hash": "0x0d7d95bd24785c551142eeb4ca2602313a4f22faf1e5cb6c6e55a971f5fb3587",
      "transactionType": "CALL",
      "contractName": "MockInvalendProtocol",
      "contractAddress": "0x6912ded3394af5b02edf63e4a05547d5d810c298",
      "function": "addPosition(address,uint256,uint256)",
      "arguments": [
        "0x2222222222222222222222222222222222222222",
        "601600000000",
        "800000000000"
      ],
      "transaction": {
        "from": "0x76bf0f26a080ec0dbe68c842c99b7f6a7cb116db",
        "to": "0x6912ded3394af5b02edf63e4a05547d5d810c298",
        "gas": "0x2ffdf",
        "value": "0x0",
        "input": "0xcff07fd100000000000000000000000022222222222222222222222222222222222222220000000000000000000000000000000000000000000000000000008c12278000000000000000000000000000000000000000000000000000000000ba43b74000",
        "nonce": "0xc42",
        "chainId": "0x14a34"
      },
      "additionalContracts": [],
      "isFixedGasLimit": false
    },
    {
      "hash": "0x0e67773d9c5c41601cf3d849abb4c4b01e352ca7d97b3a9ac1e84ee46fdf83d1",
      "transactionType": "CALL",
      "contractName": "MockInvalendProtocol",
      "contractAddress": "0x6912ded3394af5b02edf63e4a05547d5d810c298",
      "function": "addPosition(address,uint256,uint256)",
      "arguments": [
        "0x3333333333333333333333333333333333333333",
        "608000000000",
        "800000000000"
      ],
      "transaction": {
        "from": "0x76bf0f26a080ec0dbe68c842c99b7f6a7cb116db",
        "to": "0x6912ded3394af5b02edf63e4a05547d5d810c298",
        "gas": "0x2ffdf",
        "value": "0x0",
        "input": "0xcff07fd100000000000000000000000033333333333333333333333333333333333333330000000000000000000000000000000000000000000000000000008d8f9fc000000000000000000000000000000000000000000000000000000000ba43b74000",
        "nonce": "0xc43",
        "chainId": "0x14a34"
      },
      "additionalContracts": [],
      "isFixedGasLimit": false
    },
    {
      "hash": "0x1edf4c7578dfd216473d191317b690fd62f68f0538200277b2234bef9f125727",
      "transactionType": "CALL",
      "contractName": "MockInvalendProtocol",
      "contractAddress": "0x6912ded3394af5b02edf63e4a05547d5d810c298",
      "function": "addPosition(address,uint256,uint256)",
      "arguments": [
        "0x4444444444444444444444444444444444444444",
        "537600000000",
        "800000000000"
      ],
      "transaction": {
        "from": "0x76bf0f26a080ec0dbe68c842c99b7f6a7cb116db",
        "to": "0x6912ded3394af5b02edf63e4a05547d5d810c298",
        "gas": "0x32cfa",
        "value": "0x0",
        "input": "0xcff07fd100000000000000000000000044444444444444444444444444444444444444440000000000000000000000000000000000000000000000000000007d2b750000000000000000000000000000000000000000000000000000000000ba43b74000",
        "nonce": "0xc44",
        "chainId": "0x14a34"
      },
      "additionalContracts": [],
      "isFixedGasLimit": false
    },
    {
      "hash": "0x39b9e9181d9df2649fd4f9b3c64215f3eafac1335c0f32576ff0c89c0c49519c",
      "transactionType": "CALL",
      "contractName": "MockInvalendProtocol",
      "contractAddress": "0x6912ded3394af5b02edf63e4a05547d5d810c298",
      "function": "addPosition(address,uint256,uint256)",
      "arguments": [
        "0x5555555555555555555555555555555555555555",
        "544000000000",
        "800000000000"
      ],
      "transaction": {
        "from": "0x76bf0f26a080ec0dbe68c842c99b7f6a7cb116db",
        "to": "0x6912ded3394af5b02edf63e4a05547d5d810c298",
        "gas": "0x2ffdf",
        "value": "0x0",
        "input": "0xcff07fd100000000000000000000000055555555555555555555555555555555555555550000000000000000000000000000000000000000000000000000007ea8ed4000000000000000000000000000000000000000000000000000000000ba43b74000",
        "nonce": "0xc45",
        "chainId": "0x14a34"
      },
      "additionalContracts": [],
      "isFixedGasLimit": false
    },
    {
      "hash": "0x6bde7df6f7083d453a4a02cdd5f51f1c3233852f0579de1c2baf6a345ed1a7af",
      "transactionType": "CALL",
      "contractName": "MockInvalendProtocol",
      "contractAddress": "0x6912ded3394af5b02edf63e4a05547d5d810c298",
      "function": "addPosition(address,uint256,uint256)",
      "arguments": [
        "0x6666666666666666666666666666666666666666",
        "550400000000",
        "800000000000"
      ],
      "transaction": {
        "from": "0x76bf0f26a080ec0dbe68c842c99b7f6a7cb116db",
        "to": "0x6912ded3394af5b02edf63e4a05547d5d810c298",
        "gas": "0x2ffdf",
        "value": "0x0",
        "input": "0xcff07fd100000000000000000000000066666666666666666666666666666666666666660000000000000000000000000000000000000000000000000000008026658000000000000000000000000000000000000000000000000000000000ba43b74000",
        "nonce": "0xc46",
        "chainId": "0x14a34"
      },
      "additionalContracts": [],
      "isFixedGasLimit": false
    },
    {
      "hash": "0xd2573ee124f17557021e662501e218c8a01f28de2f50a486e93e1a16862dd973",
      "transactionType": "CALL",
      "contractName": "MockInvalendProtocol",
      "contractAddress": "0x6912ded3394af5b02edf63e4a05547d5d810c298",
      "function": "addPosition(address,uint256,uint256)",
      "arguments": [
        "0x7777777777777777777777777777777777777777",
        "518400000000",
        "800000000000"
      ],
      "transaction": {
        "from": "0x76bf0f26a080ec0dbe68c842c99b7f6a7cb116db",
        "to": "0x6912ded3394af5b02edf63e4a05547d5d810c298",
        "gas": "0x2ffdf",
        "value": "0x0",
        "input": "0xcff07fd1000000000000000000000000777777777777777777777777777777777777777700000000000000000000000000000000000000000000000000000078b30c4000000000000000000000000000000000000000000000000000000000ba43b74000",
        "nonce": "0xc47",
        "chainId": "0x14a34"
      },
      "additionalContracts": [],
      "isFixedGasLimit": false
    },
    {
      "hash": "0x915a521538651d197a7bec8a3cf8362b7c85961cbd15782a9fdbfbb0f076fe30",
      "transactionType": "CALL",
      "contractName": "MockInvalendProtocol",
      "contractAddress": "0x6912ded3394af5b02edf63e4a05547d5d810c298",
      "function": "addPosition(address,uint256,uint256)",
      "arguments": [
        "0x8888888888888888888888888888888888888888",
        "505600000000",
        "800000000000"
      ],
      "transaction": {
        "from": "0x76bf0f26a080ec0dbe68c842c99b7f6a7cb116db",
        "to": "0x6912ded3394af5b02edf63e4a05547d5d810c298",
        "gas": "0x2ffdf",
        "value": "0x0",
        "input": "0xcff07fd1000000000000000000000000888888888888888888888888888888888888888800000000000000000000000000000000000000000000000000000075b81bc000000000000000000000000000000000000000000000000000000000ba43b74000",
        "nonce": "0xc48",
        "chainId": "0x14a34"
      },
      "additionalContracts": [],
      "isFixedGasLimit": false
    },
    {
      "hash": "0xaae0b14fec3eae1716d46e4b84c08a1e46bb3602ae7a9ee72dd0a58262456b44",
      "transactionType": "CALL",
      "contractName": "MockInvalendProtocol",
      "contractAddress": "0x6912ded3394af5b02edf63e4a05547d5d810c298",
      "function": "setPoolStats(uint256,uint256)",
      "arguments": [
        "1000000000000",
        "650000000000"
      ],
      "transaction": {
        "from": "0x76bf0f26a080ec0dbe68c842c99b7f6a7cb116db",
        "to": "0x6912ded3394af5b02edf63e4a05547d5d810c298",
        "gas": "0xa170",
        "value": "0x0",
        "input": "0x1a72bfa5000000000000000000000000000000000000000000000000000000e8d4a51000000000000000000000000000000000000000000000000000000000975704e400",
        "nonce": "0xc49",
        "chainId": "0x14a34"
      },
      "additionalContracts": [],
      "isFixedGasLimit": false
    }
  ],
  "receipts": [
    {
      "status": "0x1",
      "cumulativeGasUsed": "0x15c307",
      "logs": [
        {
          "address": "0x6912ded3394af5b02edf63e4a05547d5d810c298",
          "topics": [
            "0xf892d24af1786b0b833e995fdf35947f490f0088846c9793725ad219af9f6306"
          ],
          "data": "0x",
          "blockHash": "0x0000000000000000000000000000000000000000000000000000000000000000",
          "blockNumber": "0x24bdb9d",
          "blockTimestamp": "0x69ab161a",
          "transactionHash": "0xbcbc2c491f6877f0bc28b93a533f74474fc04848b80bc86cfdade6dc8633b508",
          "transactionIndex": "0x6",
          "logIndex": "0x42",
          "removed": false
        }
      ],
      "logsBloom": "0x00010000000000000000000000000000000000000000000000000000000000000020000000000000000000000000000000000000000000000000000000000000000000000000000000000000000000000000000000000000000000000000000000000000000000000000000000000000000000000000000000000000000000000000000000000000000000000000400000000000000000000000000000000000010000000000000000000000000000000000000000000000000000000000000000000000000000000000000000000000000000000000000000000000000000000000000020000000000000200000000000000000000000000000000000000000",
      "type": "0x2",
      "transactionHash": "0xbcbc2c491f6877f0bc28b93a533f74474fc04848b80bc86cfdade6dc8633b508",
      "transactionIndex": "0x6",
      "blockHash": "0x0000000000000000000000000000000000000000000000000000000000000000",
      "blockNumber": "0x24bdb9d",
      "gasUsed": "0x67ba",
      "effectiveGasPrice": "0x5b8d80",
      "blobGasUsed": "0x364c",
      "from": "0x76bf0f26a080ec0dbe68c842c99b7f6a7cb116db",
      "to": "0x6912ded3394af5b02edf63e4a05547d5d810c298",
      "contractAddress": null,
      "daFootprintGasScalar": "0x8b",
      "l1BaseFeeScalar": "0x44d",
      "l1BlobBaseFee": "0xbbaa",
      "l1BlobBaseFeeScalar": "0xa118b",
      "l1Fee": "0x6857b8",
      "l1GasPrice": "0xcc0c4",
      "l1GasUsed": "0x640"
    },
    {
      "status": "0x1",
      "cumulativeGasUsed": "0x17e405",
      "logs": [
        {
          "address": "0x6912ded3394af5b02edf63e4a05547d5d810c298",
          "topics": [
            "0xe09c1fea8318354f0053fdd68105c144cc6c6989d6518c5934868930d966ed20",
            "0x0000000000000000000000000000000000000000000000000000000000000000",
            "0x0000000000000000000000001111111111111111111111111111111111111111"
          ],
          "data": "0x0000000000000000000000000000000000000000000000000000008a94af4000000000000000000000000000000000000000000000000000000000ba43b74000",
          "blockHash": "0x0000000000000000000000000000000000000000000000000000000000000000",
          "blockNumber": "0x24bdb9d",
          "blockTimestamp": "0x69ab161a",
          "transactionHash": "0x10f83344295e9072a3f0050cd996e19676c1d9d59d1b66ba1fcde85bedf6c323",
          "transactionIndex": "0x7",
          "logIndex": "0x43",
          "removed": false
        }
      ],
      "logsBloom": "0x00010000000000000000000000000000000000000000000000000000000000000000000000000000000000000000000000000000000000000000000000000000000000000000000000000000000000000000000000000000000000000000000000000000020000000000000000000800000000008000000000000000000200000000000000000000100000000000000000000000000000000000008000000000250000000000000000000000000000000000000000000000000000000000000000000000000000000000000000000000000000000000000000000000000020000000000020000000000000000000000000000000000000000000000000000000",
      "type": "0x2",
      "transactionHash": "0x10f83344295e9072a3f0050cd996e19676c1d9d59d1b66ba1fcde85bedf6c323",
      "transactionIndex": "0x7",
      "blockHash": "0x0000000000000000000000000000000000000000000000000000000000000000",
      "blockNumber": "0x24bdb9d",
      "gasUsed": "0x220fe",
      "effectiveGasPrice": "0x5b8d80",
      "blobGasUsed": "0x364c",
      "from": "0x76bf0f26a080ec0dbe68c842c99b7f6a7cb116db",
      "to": "0x6912ded3394af5b02edf63e4a05547d5d810c298",
      "contractAddress": null,
      "daFootprintGasScalar": "0x8b",
      "l1BaseFeeScalar": "0x44d",
      "l1BlobBaseFee": "0xbbaa",
      "l1BlobBaseFeeScalar": "0xa118b",
      "l1Fee": "0x6857b8",
      "l1GasPrice": "0xcc0c4",
      "l1GasUsed": "0x640"
    },
    {
      "status": "0x1",
      "cumulativeGasUsed": "0x1a0ff3",
      "logs": [
        {
          "address": "0x6912ded3394af5b02edf63e4a05547d5d810c298",
          "topics": [
            "0xe09c1fea8318354f0053fdd68105c144cc6c6989d6518c5934868930d966ed20",
            "0x0000000000000000000000000000000000000000000000000000000000000001",
            "0x0000000000000000000000002222222222222222222222222222222222222222"
          ],
          "data": "0x0000000000000000000000000000000000000000000000000000008c12278000000000000000000000000000000000000000000000000000000000ba43b74000",
          "blockHash": "0x0000000000000000000000000000000000000000000000000000000000000000",
          "blockNumber": "0x24bdb9d",
          "blockTimestamp": "0x69ab161a",
          "transactionHash": "0x0d7d95bd24785c551142eeb4ca2602313a4f22faf1e5cb6c6e55a971f5fb3587",
          "transactionIndex": "0x8",
          "logIndex": "0x44",
          "removed": false
        }
      ],
      "logsBloom": "0x00010000000000000000000000000000000000000000000000000000000000000000000000000000000000000000000000080000000000000000000020040000000000000000000000000000000000000000000000040000000000000000000000000000000000000000000000000000000000008000000000000000000000000000000000000000100000000000000000000000000000000000008000000000010000000000000000000000000000000000000000000000000000000000000000000000000000000000000000000000000000000000000000000000000040000000000020000000000000000000000000000800000000000000000000000000",
      "type": "0x2",
      "transactionHash": "0x0d7d95bd24785c551142eeb4ca2602313a4f22faf1e5cb6c6e55a971f5fb3587",
      "transactionIndex": "0x8",
      "blockHash": "0x0000000000000000000000000000000000000000000000000000000000000000",
      "blockNumber": "0x24bdb9d",
      "gasUsed": "0x22bee",
      "effectiveGasPrice": "0x5b8d80",
      "blobGasUsed": "0x364c",
      "from": "0x76bf0f26a080ec0dbe68c842c99b7f6a7cb116db",
      "to": "0x6912ded3394af5b02edf63e4a05547d5d810c298",
      "contractAddress": null,
      "daFootprintGasScalar": "0x8b",
      "l1BaseFeeScalar": "0x44d",
      "l1BlobBaseFee": "0xbbaa",
      "l1BlobBaseFeeScalar": "0xa118b",
      "l1Fee": "0x6857b8",
      "l1GasPrice": "0xcc0c4",
      "l1GasUsed": "0x640"
    },
    {
      "status": "0x1",
      "cumulativeGasUsed": "0x1c3be1",
      "logs": [
        {
          "address": "0x6912ded3394af5b02edf63e4a05547d5d810c298",
          "topics": [
            "0xe09c1fea8318354f0053fdd68105c144cc6c6989d6518c5934868930d966ed20",
            "0x0000000000000000000000000000000000000000000000000000000000000002",
            "0x0000000000000000000000003333333333333333333333333333333333333333"
          ],
          "data": "0x0000000000000000000000000000000000000000000000000000008d8f9fc000000000000000000000000000000000000000000000000000000000ba43b74000",
          "blockHash": "0x0000000000000000000000000000000000000000000000000000000000000000",
          "blockNumber": "0x24bdb9d",
          "blockTimestamp": "0x69ab161a",
          "transactionHash": "0x0e67773d9c5c41601cf3d849abb4c4b01e352ca7d97b3a9ac1e84ee46fdf83d1",
          "transactionIndex": "0x9",
          "logIndex": "0x45",
          "removed": false
        }
      ],
      "logsBloom": "0x04010000000000000000000000000002000000000000000000000000000000000000000000000000000000000000000000000000000004000000000000000000000000000000000000000000000000000000000000000000000000000000000000000000000000000000000000000000000000008000000000000000000000000000000000000000100000000000000000000000000000000000008000000000010000000000000000000100000000000000000000000000000000000000000000000000000000000000000000000000000000000000000000000000000000000000000020000000000000000000000000000000108000000000000000000000",
      "type": "0x2",
      "transactionHash": "0x0e67773d9c5c41601cf3d849abb4c4b01e352ca7d97b3a9ac1e84ee46fdf83d1",
      "transactionIndex": "0x9",
      "blockHash": "0x0000000000000000000000000000000000000000000000000000000000000000",
      "blockNumber": "0x24bdb9d",
      "gasUsed": "0x22bee",
      "effectiveGasPrice": "0x5b8d80",
      "blobGasUsed": "0x364c",
      "from": "0x76bf0f26a080ec0dbe68c842c99b7f6a7cb116db",
      "to": "0x6912ded3394af5b02edf63e4a05547d5d810c298",
      "contractAddress": null,
      "daFootprintGasScalar": "0x8b",
      "l1BaseFeeScalar": "0x44d",
      "l1BlobBaseFee": "0xbbaa",
      "l1BlobBaseFeeScalar": "0xa118b",
      "l1Fee": "0x6857b8",
      "l1GasPrice": "0xcc0c4",
      "l1GasUsed": "0x640"
    },
    {
      "status": "0x1",
      "cumulativeGasUsed": "0x1e67c3",
      "logs": [
        {
          "address": "0x6912ded3394af5b02edf63e4a05547d5d810c298",
          "topics": [
            "0xe09c1fea8318354f0053fdd68105c144cc6c6989d6518c5934868930d966ed20",
            "0x0000000000000000000000000000000000000000000000000000000000000003",
            "0x0000000000000000000000004444444444444444444444444444444444444444"
          ],
          "data": "0x0000000000000000000000000000000000000000000000000000007d2b750000000000000000000000000000000000000000000000000000000000ba43b74000",
          "blockHash": "0x0000000000000000000000000000000000000000000000000000000000000000",
          "blockNumber": "0x24bdb9d",
          "blockTimestamp": "0x69ab161a",
          "transactionHash": "0x1edf4c7578dfd216473d191317b690fd62f68f0538200277b2234bef9f125727",
          "transactionIndex": "0xa",
          "logIndex": "0x46",
          "removed": false
        }
      ],
      "logsBloom": "0x00010000000000000000000000000000000000000000000000000000000000000200000000000000000000000000000000000000020000000000000000000000000000000000000000000000000000000000000000000000000000000000000000000000000080000000000000000000000000008000000000000000000000000000000000000000100000000000000000000000000000000000008000000000010000000000000000000000000000000000000000800000000000000000400000000000000000000000000000000040000000000000000000000000000000000000000020000000000000000000000000000000000000000000000000000000",
      "type": "0x2",
      "transactionHash": "0x1edf4c7578dfd216473d191317b690fd62f68f0538200277b2234bef9f125727",
      "transactionIndex": "0xa",
      "blockHash": "0x0000000000000000000000000000000000000000000000000000000000000000",
      "blockNumber": "0x24bdb9d",
      "gasUsed": "0x22be2",
      "effectiveGasPrice": "0x5b8d80",
      "blobGasUsed": "0x364c",
      "from": "0x76bf0f26a080ec0dbe68c842c99b7f6a7cb116db",
      "to": "0x6912ded3394af5b02edf63e4a05547d5d810c298",
      "contractAddress": null,
      "daFootprintGasScalar": "0x8b",
      "l1BaseFeeScalar": "0x44d",
      "l1BlobBaseFee": "0xbbaa",
      "l1BlobBaseFeeScalar": "0xa118b",
      "l1Fee": "0x6857b8",
      "l1GasPrice": "0xcc0c4",
      "l1GasUsed": "0x640"
    },
    {
      "status": "0x1",
      "cumulativeGasUsed": "0x2093b1",
      "logs": [
        {
          "address": "0x6912ded3394af5b02edf63e4a05547d5d810c298",
          "topics": [
            "0xe09c1fea8318354f0053fdd68105c144cc6c6989d6518c5934868930d966ed20",
            "0x0000000000000000000000000000000000000000000000000000000000000004",
            "0x0000000000000000000000005555555555555555555555555555555555555555"
          ],
          "data": "0x0000000000000000000000000000000000000000000000000000007ea8ed4000000000000000000000000000000000000000000000000000000000ba43b74000",
          "blockHash": "0x0000000000000000000000000000000000000000000000000000000000000000",
          "blockNumber": "0x24bdb9d",
          "blockTimestamp": "0x69ab161a",
          "transactionHash": "0x39b9e9181d9df2649fd4f9b3c64215f3eafac1335c0f32576ff0c89c0c49519c",
          "transactionIndex": "0xb",
          "logIndex": "0x47",
          "removed": false
        }
      ],
      "logsBloom": "0x00010000000000000000000000000000000000000000000000000000000000000000000000000000000000000000000000000000040000000000000000000000000000000000000000000000000000000000000000000000000000000000000008000000000000000000000000000000000001008000000000000000000000000000000000000000100000000000000000000000000000000000008000000000010000000000000000000000000000000000000000000000002000000000000000000000000000000000000000000000000000008000000000000000000000000000000820000000000000000000000000000000000000000000000000000000",
      "type": "0x2",
      "transactionHash": "0x39b9e9181d9df2649fd4f9b3c64215f3eafac1335c0f32576ff0c89c0c49519c",
      "transactionIndex": "0xb",
      "blockHash": "0x0000000000000000000000000000000000000000000000000000000000000000",
      "blockNumber": "0x24bdb9d",
      "gasUsed": "0x22bee",
      "effectiveGasPrice": "0x5b8d80",
      "blobGasUsed": "0x364c",
      "from": "0x76bf0f26a080ec0dbe68c842c99b7f6a7cb116db",
      "to": "0x6912ded3394af5b02edf63e4a05547d5d810c298",
      "contractAddress": null,
      "daFootprintGasScalar": "0x8b",
      "l1BaseFeeScalar": "0x44d",
      "l1BlobBaseFee": "0xbbaa",
      "l1BlobBaseFeeScalar": "0xa118b",
      "l1Fee": "0x6857b8",
      "l1GasPrice": "0xcc0c4",
      "l1GasUsed": "0x640"
    },
    {
      "status": "0x1",
      "cumulativeGasUsed": "0x22bf9f",
      "logs": [
        {
          "address": "0x6912ded3394af5b02edf63e4a05547d5d810c298",
          "topics": [
            "0xe09c1fea8318354f0053fdd68105c144cc6c6989d6518c5934868930d966ed20",
            "0x0000000000000000000000000000000000000000000000000000000000000005",
            "0x0000000000000000000000006666666666666666666666666666666666666666"
          ],
          "data": "0x0000000000000000000000000000000000000000000000000000008026658000000000000000000000000000000000000000000000000000000000ba43b74000",
          "blockHash": "0x0000000000000000000000000000000000000000000000000000000000000000",
          "blockNumber": "0x24bdb9d",
          "blockTimestamp": "0x69ab161a",
          "transactionHash": "0x6bde7df6f7083d453a4a02cdd5f51f1c3233852f0579de1c2baf6a345ed1a7af",
          "transactionIndex": "0xc",
          "logIndex": "0x48",
          "removed": false
        }
      ],
      "logsBloom": "0x00010000000000000000000000000040000000000000000000000000000200000000000000000000000000000000000000000000000000000000000000000000000010000000000000000000000000000000000000000000000000000000000000000000000000000000000000000000000000008000000000000000000000000000000000000000100000000000001000000800000000000000008000000000010000000000000000000000000040000000000000000000000000000000000000000000000000000000000000000000000000000000000000000000000000000000000020000000000000000000000000000000000000000000000000000000",
      "type": "0x2",
      "transactionHash": "0x6bde7df6f7083d453a4a02cdd5f51f1c3233852f0579de1c2baf6a345ed1a7af",
      "transactionIndex": "0xc",
      "blockHash": "0x0000000000000000000000000000000000000000000000000000000000000000",
      "blockNumber": "0x24bdb9d",
      "gasUsed": "0x22bee",
      "effectiveGasPrice": "0x5b8d80",
      "blobGasUsed": "0x364c",
      "from": "0x76bf0f26a080ec0dbe68c842c99b7f6a7cb116db",
      "to": "0x6912ded3394af5b02edf63e4a05547d5d810c298",
      "contractAddress": null,
      "daFootprintGasScalar": "0x8b",
      "l1BaseFeeScalar": "0x44d",
      "l1BlobBaseFee": "0xbbaa",
      "l1BlobBaseFeeScalar": "0xa118b",
      "l1Fee": "0x6857b8",
      "l1GasPrice": "0xcc0c4",
      "l1GasUsed": "0x640"
    },
    {
      "status": "0x1",
      "cumulativeGasUsed": "0x29d93f",
      "logs": [
        {
          "address": "0x6912ded3394af5b02edf63e4a05547d5d810c298",
          "topics": [
            "0xe09c1fea8318354f0053fdd68105c144cc6c6989d6518c5934868930d966ed20",
            "0x0000000000000000000000000000000000000000000000000000000000000006",
            "0x0000000000000000000000007777777777777777777777777777777777777777"
          ],
          "data": "0x00000000000000000000000000000000000000000000000000000078b30c4000000000000000000000000000000000000000000000000000000000ba43b74000",
          "blockHash": "0x0000000000000000000000000000000000000000000000000000000000000000",
          "blockNumber": "0x24bdb9d",
          "blockTimestamp": "0x69ab161a",
          "transactionHash": "0xd2573ee124f17557021e662501e218c8a01f28de2f50a486e93e1a16862dd973",
          "transactionIndex": "0x12",
          "logIndex": "0x4b",
          "removed": false
        }
      ],
      "logsBloom": "0x00010000000000000000000000000000000000000000000000000000000000000000000000000000000000000000000000000000000400000000000000000000000000000000000000000000000000000000000000000000000000000000000000000000000000000000000000000000000000008000000000000000000000000000000400000008100000000000000000000000000008000000088000000000010000000000000000000000000000000000000000000000000000080000000000000000000000000000000000000000000000000000000000000000000000000000000020000000000000000000000000000000000000000000000000000000",
      "type": "0x2",
      "transactionHash": "0xd2573ee124f17557021e662501e218c8a01f28de2f50a486e93e1a16862dd973",
      "transactionIndex": "0x12",
      "blockHash": "0x0000000000000000000000000000000000000000000000000000000000000000",
      "blockNumber": "0x24bdb9d",
      "gasUsed": "0x22bee",
      "effectiveGasPrice": "0x5b8d80",
      "blobGasUsed": "0x364c",
      "from": "0x76bf0f26a080ec0dbe68c842c99b7f6a7cb116db",
      "to": "0x6912ded3394af5b02edf63e4a05547d5d810c298",
      "contractAddress": null,
      "daFootprintGasScalar": "0x8b",
      "l1BaseFeeScalar": "0x44d",
      "l1BlobBaseFee": "0xbbaa",
      "l1BlobBaseFeeScalar": "0xa118b",
      "l1Fee": "0x46d63e",
      "l1GasPrice": "0xcc0c4",
      "l1GasUsed": "0x640"
    },
    {
      "status": "0x1",
      "cumulativeGasUsed": "0x2c052d",
      "logs": [
        {
          "address": "0x6912ded3394af5b02edf63e4a05547d5d810c298",
          "topics": [
            "0xe09c1fea8318354f0053fdd68105c144cc6c6989d6518c5934868930d966ed20",
            "0x0000000000000000000000000000000000000000000000000000000000000007",
            "0x0000000000000000000000008888888888888888888888888888888888888888"
          ],
          "data": "0x00000000000000000000000000000000000000000000000000000075b81bc000000000000000000000000000000000000000000000000000000000ba43b74000",
          "blockHash": "0x0000000000000000000000000000000000000000000000000000000000000000",
          "blockNumber": "0x24bdb9d",
          "blockTimestamp": "0x69ab161a",
          "transactionHash": "0x915a521538651d197a7bec8a3cf8362b7c85961cbd15782a9fdbfbb0f076fe30",
          "transactionIndex": "0x13",
          "logIndex": "0x4c",
          "removed": false
        }
      ],
      "logsBloom": "0x00010000000000000000000000200000000000000000000000000000000000000000000000000000000000000000000000001000000000000000000000000000000020000000000000000000000000000000000000000000000000000000000000000000000000000000000000000000000000008000000000000000000000000000000000000000100000000002000000000000000000000000008000000000010000000000000000002000000000000000000000000000000000000000000000000000000000000000000000000000000000000000000000000100000000000000000020000000000000000000000000000000000000000000000000000000",
      "type": "0x2",
      "transactionHash": "0x915a521538651d197a7bec8a3cf8362b7c85961cbd15782a9fdbfbb0f076fe30",
      "transactionIndex": "0x13",
      "blockHash": "0x0000000000000000000000000000000000000000000000000000000000000000",
      "blockNumber": "0x24bdb9d",
      "gasUsed": "0x22bee",
      "effectiveGasPrice": "0x5b8d80",
      "blobGasUsed": "0x364c",
      "from": "0x76bf0f26a080ec0dbe68c842c99b7f6a7cb116db",
      "to": "0x6912ded3394af5b02edf63e4a05547d5d810c298",
      "contractAddress": null,
      "daFootprintGasScalar": "0x8b",
      "l1BaseFeeScalar": "0x44d",
      "l1BlobBaseFee": "0xbbaa",
      "l1BlobBaseFeeScalar": "0xa118b",
      "l1Fee": "0x46d63e",
      "l1GasPrice": "0xcc0c4",
      "l1GasUsed": "0x640"
    },
    {
      "status": "0x1",
      "cumulativeGasUsed": "0x2c7390",
      "logs": [],
      "logsBloom": "0x00000000000000000000000000000000000000000000000000000000000000000000000000000000000000000000000000000000000000000000000000000000000000000000000000000000000000000000000000000000000000000000000000000000000000000000000000000000000000000000000000000000000000000000000000000000000000000000000000000000000000000000000000000000000000000000000000000000000000000000000000000000000000000000000000000000000000000000000000000000000000000000000000000000000000000000000000000000000000000000000000000000000000000000000000000000",
      "type": "0x2",
      "transactionHash": "0xaae0b14fec3eae1716d46e4b84c08a1e46bb3602ae7a9ee72dd0a58262456b44",
      "transactionIndex": "0x14",
      "blockHash": "0x0000000000000000000000000000000000000000000000000000000000000000",
      "blockNumber": "0x24bdb9d",
      "gasUsed": "0x6e63",
      "effectiveGasPrice": "0x5b8d80",
      "blobGasUsed": "0x364c",
      "from": "0x76bf0f26a080ec0dbe68c842c99b7f6a7cb116db",
      "to": "0x6912ded3394af5b02edf63e4a05547d5d810c298",
      "contractAddress": null,
      "daFootprintGasScalar": "0x8b",
      "l1BaseFeeScalar": "0x44d",
      "l1BlobBaseFee": "0xbbaa",
      "l1BlobBaseFeeScalar": "0xa118b",
      "l1Fee": "0x46d63e",
      "l1GasPrice": "0xcc0c4",
      "l1GasUsed": "0x640"
    }
  ],
  "libraries": [],
  "pending": [],
  "returns": {},
  "timestamp": 1772819993753,
  "chain": 84532,
  "commit": "7141a1c"
}