{
  "transactions": [
    {
      "hash": "0x984e5ceeff06fe6c14a70a7dd80d7aaf4c5c04d42f258a6ac66b41af072bac3a",
      "transactionType": "CALL",
      "contractName": null,
      "contractAddress": "0x59ff05691a0f0c0e5a8bea315aa8ebcb934fffdf",
      "function": "resetPositions()",
      "arguments": [],
      "transaction": {
        "from": "0x76bf0f26a080ec0dbe68c842c99b7f6a7cb116db",
        "to": "0x59ff05691a0f0c0e5a8bea315aa8ebcb934fffdf",
        "gas": "0x3d68f",
        "value": "0x0",
        "input": "0x3d858692",
        "nonce": "0xc63",
        "chainId": "0x14a34"
      },
      "additionalContracts": [],
      "isFixedGasLimit": false
    },
    {
      "hash": "0x0609cff3cc946b65c21b3b21edfbf523e493eac151d42c698b759d7c5448146e",
      "transactionType": "CALL",
      "contractName": null,
      "contractAddress": "0x59ff05691a0f0c0e5a8bea315aa8ebcb934fffdf",
      "function": "addPosition(address,uint256,uint256)",
      "arguments": [
        "0x1111111111111111111111111111111111111111",
        "595200000000",
        "800000000000"
      ],
      "transaction": {
        "from": "0x76bf0f26a080ec0dbe68c842c99b7f6a7cb116db",
        "to": "0x59ff05691a0f0c0e5a8bea315aa8ebcb934fffdf",
        "gas": "0x2f0c4",
        "value": "0x0",
        "input": "0xcff07fd100000000000000000000000011111111111111111111111111111111111111110000000000000000000000000000000000000000000000000000008a94af4000000000000000000000000000000000000000000000000000000000ba43b74000",
        "nonce": "0xc64",
        "chainId": "0x14a34"
      },
      "additionalContracts": [],
      "isFixedGasLimit": false
    },
    {
      "hash": "0xcedcffb882684bb1efde97309ba24ffe0d21267af95e3e2c35ed0ddbb5798144",
      "transactionType": "CALL",
      "contractName": null,
      "contractAddress": "0x59ff05691a0f0c0e5a8bea315aa8ebcb934fffdf",
      "function": "addPosition(address,uint256,uint256)",
      "arguments": [
        "0x2222222222222222222222222222222222222222",
        "601600000000",
        "800000000000"
      ],
      "transaction": {
        "from": "0x76bf0f26a080ec0dbe68c842c99b7f6a7cb116db",
        "to": "0x59ff05691a0f0c0e5a8bea315aa8ebcb934fffdf",
        "gas": "0x2ffdf",
        "value": "0x0",
        "input": "0xcff07fd100000000000000000000000022222222222222222222222222222222222222220000000000000000000000000000000000000000000000000000008c12278000000000000000000000000000000000000000000000000000000000ba43b74000",
        "nonce": "0xc65",
        "chainId": "0x14a34"
      },
      "additionalContracts": [],
      "isFixedGasLimit": false
    },
    {
      "hash": "0x3bc031abadd9d27426ac00781f938faada71ce25c9b4ea4672cc2b4fe923f6e4",
      "transactionType": "CALL",
      "contractName": null,
      "contractAddress": "0x59ff05691a0f0c0e5a8bea315aa8ebcb934fffdf",
      "function": "addPosition(address,uint256,uint256)",
      "arguments": [
        "0x3333333333333333333333333333333333333333",
        "608000000000",
        "800000000000"
      ],
      "transaction": {
        "from": "0x76bf0f26a080ec0dbe68c842c99b7f6a7cb116db",
        "to": "0x59ff05691a0f0c0e5a8bea315aa8ebcb934fffdf",
        "gas": "0x2ffdf",
        "value": "0x0",
        "input": "0xcff07fd100000000000000000000000033333333333333333333333333333333333333330000000000000000000000000000000000000000000000000000008d8f9fc000000000000000000000000000000000000000000000000000000000ba43b74000",
        "nonce": "0xc66",
        "chainId": "0x14a34"
      },
      "additionalContracts": [],
      "isFixedGasLimit": false
    },
    {
      "hash": "0xf761a18c5338f477116df3ce49d5ec56bfe6d9f7184ba70d1f45254ec0bea937",
      "transactionType": "CALL",
      "contractName": null,
      "contractAddress": "0x59ff05691a0f0c0e5a8bea315aa8ebcb934fffdf",
      "function": "addPosition(address,uint256,uint256)",
      "arguments": [
        "0x4444444444444444444444444444444444444444",
        "537600000000",
        "800000000000"
      ],
      "transaction": {
        "from": "0x76bf0f26a080ec0dbe68c842c99b7f6a7cb116db",
        "to": "0x59ff05691a0f0c0e5a8bea315aa8ebcb934fffdf",
        "gas": "0x32cfa",
        "value": "0x0",
        "input": "0xcff07fd100000000000000000000000044444444444444444444444444444444444444440000000000000000000000000000000000000000000000000000007d2b750000000000000000000000000000000000000000000000000000000000ba43b74000",
        "nonce": "0xc67",
        "chainId": "0x14a34"
      },
      "additionalContracts": [],
      "isFixedGasLimit": false
    },
    {
      "hash": "0x87277d0a7c09789be61c3a09458ebcf2f3f58dc4a83bcbc94a221b6374d75dbb",
      "transactionType": "CALL",
      "contractName": null,
      "contractAddress": "0x59ff05691a0f0c0e5a8bea315aa8ebcb934fffdf",
      "function": "addPosition(address,uint256,uint256)",
      "arguments": [
        "0x5555555555555555555555555555555555555555",
        "544000000000",
        "800000000000"
      ],
      "transaction": {
        "from": "0x76bf0f26a080ec0dbe68c842c99b7f6a7cb116db",
        "to": "0x59ff05691a0f0c0e5a8bea315aa8ebcb934fffdf",
        "gas": "0x2ffdf",
        "value": "0x0",
        "input": "0xcff07fd100000000000000000000000055555555555555555555555555555555555555550000000000000000000000000000000000000000000000000000007ea8ed4000000000000000000000000000000000000000000000000000000000ba43b74000",
        "nonce": "0xc68",
        "chainId": "0x14a34"
      },
      "additionalContracts": [],
      "isFixedGasLimit": false
    },
    {
      "hash": "0xb1f87fea35dc9c47a44246f00c456df67a57c08fa642767bdff0c790017b2186",
      "transactionType": "CALL",
      "contractName": null,
      "contractAddress": "0x59ff05691a0f0c0e5a8bea315aa8ebcb934fffdf",
      "function": "addPosition(address,uint256,uint256)",
      "arguments": [
        "0x6666666666666666666666666666666666666666",
        "550400000000",
        "800000000000"
      ],
      "transaction": {
        "from": "0x76bf0f26a080ec0dbe68c842c99b7f6a7cb116db",
        "to": "0x59ff05691a0f0c0e5a8bea315aa8ebcb934fffdf",
        "gas": "0x2ffdf",
        "value": "0x0",
        "input": "0xcff07fd100000000000000000000000066666666666666666666666666666666666666660000000000000000000000000000000000000000000000000000008026658000000000000000000000000000000000000000000000000000000000ba43b74000",
        "nonce": "0xc69",
        "chainId": "0x14a34"
      },
      "additionalContracts": [],
      "isFixedGasLimit": false
    },
    {
      "hash": "0x55b5cf4bc3655a648a0c255bd0c292ee2b6aa534f8ec02303d93ae3bd7b4014c",
      "transactionType": "CALL",
      "contractName": null,
      "contractAddress": "0x59ff05691a0f0c0e5a8bea315aa8ebcb934fffdf",
      "function": "addPosition(address,uint256,uint256)",
      "arguments": [
        "0x7777777777777777777777777777777777777777",
        "518400000000",
        "800000000000"
      ],
      "transaction": {
        "from": "0x76bf0f26a080ec0dbe68c842c99b7f6a7cb116db",
        "to": "0x59ff05691a0f0c0e5a8bea315aa8ebcb934fffdf",
        "gas": "0x2ffdf",
        "value": "0x0",
        "input": "0xcff07fd1000000000000000000000000777777777777777777777777777777777777777700000000000000000000000000000000000000000000000000000078b30c4000000000000000000000000000000000000000000000000000000000ba43b74000",
        "nonce": "0xc6a",
        "chainId": "0x14a34"
      },
      "additionalContracts": [],
      "isFixedGasLimit": false
    },
    {
      "hash": "0xcff9bcb89053ea8460712c9c554579f234fea3716620438936358daf303e59f5",
      "transactionType": "CALL",
      "contractName": null,
      "contractAddress": "0x59ff05691a0f0c0e5a8bea315aa8ebcb934fffdf",
      "function": "addPosition(address,uint256,uint256)",
      "arguments": [
        "0x8888888888888888888888888888888888888888",
        "505600000000",
        "800000000000"
      ],
      "transaction": {
        "from": "0x76bf0f26a080ec0dbe68c842c99b7f6a7cb116db",
        "to": "0x59ff05691a0f0c0e5a8bea315aa8ebcb934fffdf",
        "gas": "0x2ffdf",
        "value": "0x0",
        "input": "0xcff07fd1000000000000000000000000888888888888888888888888888888888888888800000000000000000000000000000000000000000000000000000075b81bc000000000000000000000000000000000000000000000000000000000ba43b74000",
        "nonce": "0xc6b",
        "chainId": "0x14a34"
      },
      "additionalContracts": [],
      "isFixedGasLimit": false
    },
    {
      "hash": "0x6e20176adceb9d902cfcc0e2187b5d754826d24c35c6dc6801e435d948e1e83b",
      "transactionType": "CALL",
      "contractName": null,
      "contractAddress": "0x59ff05691a0f0c0e5a8bea315aa8ebcb934fffdf",
      "function": "setPoolStats(uint256,uint256)",
      "arguments": [
        "1000000000000",
        "650000000000"
      ],
      "transaction": {
        "from": "0x76bf0f26a080ec0dbe68c842c99b7f6a7cb116db",
        "to": "0x59ff05691a0f0c0e5a8bea315aa8ebcb934fffdf",
        "gas": "0xa170",
        "value": "0x0",
        "input": "0x1a72bfa5000000000000000000000000000000000000000000000000000000e8d4a51000000000000000000000000000000000000000000000000000000000975704e400",
        "nonce": "0xc6c",
        "chainId": "0x14a34"
      },
      "additionalContracts": [],
      "isFixedGasLimit": false
    }
  ],
  "receipts": [
    {
      "status": "0x1",
      "cumulativeGasUsed": "0x4493a9",
      "logs": [
        {
          "address": "0x59ff05691a0f0c0e5a8bea315aa8ebcb934fffdf",
          "topics": [
            "0xf892d24af1786b0b833e995fdf35947f490f0088846c9793725ad219af9f6306"
          ],
          "data": "0x",
          "blockHash": "0x331ebdf823183124669a76d45785812aa1c67846ff5a3b8ae5e67dfd2dc7bfbf",
          "blockNumber": "0x24bf1b9",
          "blockTimestamp": "0x69ab4252",
          "transactionHash": "0x984e5ceeff06fe6c14a70a7dd80d7aaf4c5c04d42f258a6ac66b41af072bac3a",
          "transactionIndex": "0x1f",
          "logIndex": "0x79",
          "removed": false
        }
      ],
      "logsBloom": "0x00000000000000000000000000000000000000000000000000000000000000000020000000000000000000000000000000000000000000000000000000000000000000000000000000000000000000000000000000000000000000000000000000000000000000000000000000000000000000000000000000000000000000000000000000000000000000000000400000000000000000000000000000000000000000000000000000000000800000000000000000000000000000000000000000000000000000000000000000000000000000000020000000000000000000000000000000000000000000200000004000000000000000000000000000000000",
      "type": "0x2",
      "transactionHash": "0x984e5ceeff06fe6c14a70a7dd80d7aaf4c5c04d42f258a6ac66b41af072bac3a",
      "transactionIndex": "0x1f",
      "blockHash": "0x331ebdf823183124669a76d45785812aa1c67846ff5a3b8ae5e67dfd2dc7bfbf",
      "blockNumber": "0x24bf1b9",
      "gasUsed": "0x2c75c",
      "effectiveGasPrice": "0x5b8d80",
      "blobGasUsed": "0x364c",
      "from": "0x76bf0f26a080ec0dbe68c842c99b7f6a7cb116db",
      "to": "0x59ff05691a0f0c0e5a8bea315aa8ebcb934fffdf",
      "contractAddress": null,
      "daFootprintGasScalar": "0x8b",
      "l1BaseFeeScalar": "0x44d",
      "l1BlobBaseFee": "0x2b",
      "l1BlobBaseFeeScalar": "0xa118b",
      "l1Fee": "0xfb1",
      "l1GasPrice": "0x29e",
      "l1GasUsed": "0x640"
    },
    {
      "status": "0x1",
      "cumulativeGasUsed": "0x156a07",
      "logs": [
        {
          "address": "0x59ff05691a0f0c0e5a8bea315aa8ebcb934fffdf",
          "topics": [
            "0xe09c1fea8318354f0053fdd68105c144cc6c6989d6518c5934868930d966ed20",
            "0x0000000000000000000000000000000000000000000000000000000000000000",
            "0x0000000000000000000000001111111111111111111111111111111111111111"
          ],
          "data": "0x0000000000000000000000000000000000000000000000000000008a94af4000000000000000000000000000000000000000000000000000000000ba43b74000",
          "blockHash": "0x0000000000000000000000000000000000000000000000000000000000000000",
          "blockNumber": "0x24bf1ba",
          "blockTimestamp": "0x69ab4254",
          "transactionHash": "0x0609cff3cc946b65c21b3b21edfbf523e493eac151d42c698b759d7c5448146e",
          "transactionIndex": "0xb",
          "logIndex": "0x22",
          "removed": false
        }
      ],
      "logsBloom": "0x00000000000000000000000000000000000000000000000000000000000000000000000000000000000000000000000000000000000000000000000000000000000000000000000000000000000000000000000000000000000000000000000000000000020000000000000000000800000000008000000000000000000200000000000000000000100000000000000000000000000000000000008000000000240000000000000000000000800000000000000000000000000000000000000000000000000000000000000000000000000000000020000000000000000020000000000000000000000000000000004000000000000000000000000000000000",
      "type": "0x2",
      "transactionHash": "0x0609cff3cc946b65c21b3b21edfbf523e493eac151d42c698b759d7c5448146e",
      "transactionIndex": "0xb",
      "blockHash": "0x0000000000000000000000000000000000000000000000000000000000000000",
      "blockNumber": "0x24bf1ba",
      "gasUsed": "0x220fe",
      "effectiveGasPrice": "0x5b8d80",
      "blobGasUsed": "0x364c",
      "from": "0x76bf0f26a080ec0dbe68c842c99b7f6a7cb116db",
      "to": "0x59ff05691a0f0c0e5a8bea315aa8ebcb934fffdf",
      "contractAddress": null,
      "daFootprintGasScalar": "0x8b",
      "l1BaseFeeScalar": "0x44d",
      "l1BlobBaseFee": "0x2a",
      "l1BlobBaseFeeScalar": "0xa118b",
      "l1Fee": "0xf51",
      "l1GasPrice": "0x28d",
      "l1GasUsed": "0x640"
    },
    {
      "status": "0x1",
      "cumulativeGasUsed": "0x1795f5",
      "logs": [
        {
          "address": "0x59ff05691a0f0c0e5a8bea315aa8ebcb934fffdf",
          "topics": [
            "0xe09c1fea8318354f0053fdd68105c144cc6c6989d6518c5934868930d966ed20",
            "0x0000000000000000000000000000000000000000000000000000000000000001",
            "0x0000000000000000000000002222222222222222222222222222222222222222"
          ],
          "data": "0x0000000000000000000000000000000000000000000000000000008c12278000000000000000000000000000000000000000000000000000000000ba43b74000",
          "blockHash": "0x0000000000000000000000000000000000000000000000000000000000000000",
          "blockNumber": "0x24bf1ba",
          "blockTimestamp": "0x69ab4254",
          "transactionHash": "0xcedcffb882684bb1efde97309ba24ffe0d21267af95e3e2c35ed0ddbb5798144",
          "transactionIndex": "0xc",
          "logIndex": "0x23",
          "removed": false
        }
      ],
      "logsBloom": "0x00000000000000000000000000000000000000000000000000000000000000000000000000000000000000000000000000080000000000000000000020040000000000000000000000000000000000000000000000040000000000000000000000000000000000000000000000000000000000008000000000000000000000000000000000000000100000000000000000000000000000000000008000000000000000000000000000000000800000000000000000000000000000000000000000000000000000000000000000000000000000000020000000000000000040000000000000000000000000000000004000000800000000000000000000000000",
      "type": "0x2",
      "transactionHash": "0xcedcffb882684bb1efde97309ba24ffe0d21267af95e3e2c35ed0ddbb5798144",
      "transactionIndex": "0xc",
      "blockHash": "0x0000000000000000000000000000000000000000000000000000000000000000",
      "blockNumber": "0x24bf1ba",
      "gasUsed": "0x22bee",
      "effectiveGasPrice": "0x5b8d80",
      "blobGasUsed": "0x364c",
      "from": "0x76bf0f26a080ec0dbe68c842c99b7f6a7cb116db",
      "to": "0x59ff05691a0f0c0e5a8bea315aa8ebcb934fffdf",
      "contractAddress": null,
      "daFootprintGasScalar": "0x8b",
      "l1BaseFeeScalar": "0x44d",
      "l1BlobBaseFee": "0x2a",
      "l1BlobBaseFeeScalar": "0xa118b",
      "l1Fee": "0xf51",
      "l1GasPrice": "0x28d",
      "l1GasUsed": "0x640"
    },
    {
      "status": "0x1",
      "cumulativeGasUsed": "0x19c1e3",
      "logs": [
        {
          "address": "0x59ff05691a0f0c0e5a8bea315aa8ebcb934fffdf",
          "topics": [
            "0xe09c1fea8318354f0053fdd68105c144cc6c6989d6518c5934868930d966ed20",
            "0x0000000000000000000000000000000000000000000000000000000000000002",
            "0x0000000000000000000000003333333333333333333333333333333333333333"
          ],
          "data": "0x0000000000000000000000000000000000000000000000000000008d8f9fc000000000000000000000000000000000000000000000000000000000ba43b74000",
          "blockHash": "0x0000000000000000000000000000000000000000000000000000000000000000",
          "blockNumber": "0x24bf1ba",
          "blockTimestamp": "0x69ab4254",
          "transactionHash": "0x3bc031abadd9d27426ac00781f938faada71ce25c9b4ea4672cc2b4fe923f6e4",
          "transactionIndex": "0xd",
          "logIndex": "0x24",
          "removed": false
        }
      ],
      "logsBloom": "0x04000000000000000000000000000002000000000000000000000000000000000000000000000000000000000000000000000000000004000000000000000000000000000000000000000000000000000000000000000000000000000000000000000000000000000000000000000000000000008000000000000000000000000000000000000000100000000000000000000000000000000000008000000000000000000000000000000100800000000000000000000000000000000000000000000000000000000000000000000000000000000020000000000000000000000000000000000000000000000000004000000000108000000000000000000000",
      "type": "0x2",
      "transactionHash": "0x3bc031abadd9d27426ac00781f938faada71ce25c9b4ea4672cc2b4fe923f6e4",
      "transactionIndex": "0xd",
      "blockHash": "0x0000000000000000000000000000000000000000000000000000000000000000",
      "blockNumber": "0x24bf1ba",
      "gasUsed": "0x22bee",
      "effectiveGasPrice": "0x5b8d80",
      "blobGasUsed": "0x364c",
      "from": "0x76bf0f26a080ec0dbe68c842c99b7f6a7cb116db",
      "to": "0x59ff05691a0f0c0e5a8bea315aa8ebcb934fffdf",
      "contractAddress": null,
      "daFootprintGasScalar": "0x8b",
      "l1BaseFeeScalar": "0x44d",
      "l1BlobBaseFee": "0x2a",
      "l1BlobBaseFeeScalar": "0xa118b",
      "l1Fee": "0xf51",
      "l1GasPrice": "0x28d",
      "l1GasUsed": "0x640"
    },
    {
      "status": "0x1",
      "cumulativeGasUsed": "0x1bedc5",
      "logs": [
        {
          "address": "0x59ff05691a0f0c0e5a8bea315aa8ebcb934fffdf",
          "topics": [
            "0xe09c1fea8318354f0053fdd68105c144cc6c6989d6518c5934868930d966ed20",
            "0x0000000000000000000000000000000000000000000000000000000000000003",
            "0x0000000000000000000000004444444444444444444444444444444444444444"
          ],
          "data": "0x0000000000000000000000000000000000000000000000000000007d2b750000000000000000000000000000000000000000000000000000000000ba43b74000",
          "blockHash": "0x0000000000000000000000000000000000000000000000000000000000000000",
          "blockNumber": "0x24bf1ba",
          "blockTimestamp": "0x69ab4254",
          "transactionHash": "0xf761a18c5338f477116df3ce49d5ec56bfe6d9f7184ba70d1f45254ec0bea937",
          "transactionIndex": "0xe",
          "logIndex": "0x25",
          "removed": false
        }
      ],
      "logsBloom": "0x00000000000000000000000000000000000000000000000000000000000000000200000000000000000000000000000000000000020000000000000000000000000000000000000000000000000000000000000000000000000000000000000000000000000080000000000000000000000000008000000000000000000000000000000000000000100000000000000000000000000000000000008000000000000000000000000000000000800000000000000000800000000000000000400000000000000000000000000000000040000000000020000000000000000000000000000000000000000000000000004000000000000000000000000000000000",
      "type": "0x2",
      "transactionHash": "0xf761a18c5338f477116df3ce49d5ec56bfe6d9f7184ba70d1f45254ec0bea937",
      "transactionIndex": "0xe",
      "blockHash": "0x0000000000000000000000000000000000000000000000000000000000000000",
      "blockNumber": "0x24bf1ba",
      "gasUsed": "0x22be2",
      "effectiveGasPrice": "0x5b8d80",
      "blobGasUsed": "0x364c",
      "from": "0x76bf0f26a080ec0dbe68c842c99b7f6a7cb116db",
      "to": "0x59ff05691a0f0c0e5a8bea315aa8ebcb934fffdf",
      "contractAddress": null,
      "daFootprintGasScalar": "0x8b",
      "l1BaseFeeScalar": "0x44d",
      "l1BlobBaseFee": "0x2a",
      "l1BlobBaseFeeScalar": "0xa118b",
      "l1Fee": "0xf51",
      "l1GasPrice": "0x28d",
      "l1GasUsed": "0x640"
    },
    {
      "status": "0x1",
      "cumulativeGasUsed": "0x1e19b3",
      "logs": [
        {
          "address": "0x59ff05691a0f0c0e5a8bea315aa8ebcb934fffdf",
          "topics": [
            "0xe09c1fea8318354f0053fdd68105c144cc6c6989d6518c5934868930d966ed20",
            "0x0000000000000000000000000000000000000000000000000000000000000004",
            "0x0000000000000000000000005555555555555555555555555555555555555555"
          ],
          "data": "0x0000000000000000000000000000000000000000000000000000007ea8ed4000000000000000000000000000000000000000000000000000000000ba43b74000",
          "blockHash": "0x0000000000000000000000000000000000000000000000000000000000000000",
          "blockNumber": "0x24bf1ba",
          "blockTimestamp": "0x69ab4254",
          "transactionHash": "0x87277d0a7c09789be61c3a09458ebcf2f3f58dc4a83bcbc94a221b6374d75dbb",
          "transactionIndex": "0xf",
          "logIndex": "0x26",
          "removed": false
        }
      ],
      "logsBloom": "0x00000000000000000000000000000000000000000000000000000000000000000000000000000000000000000000000000000000040000000000000000000000000000000000000000000000000000000000000000000000000000000000000008000000000000000000000000000000000001008000000000000000000000000000000000000000100000000000000000000000000000000000008000000000000000000000000000000000800000000000000000000000002000000000000000000000000000000000000000000000000000008020000000000000000000000000000800000000000000000000004000000000000000000000000000000000",
      "type": "0x2",
      "transactionHash": "0x87277d0a7c09789be61c3a09458ebcf2f3f58dc4a83bcbc94a221b6374d75dbb",
      "transactionIndex": "0xf",
      "blockHash": "0x0000000000000000000000000000000000000000000000000000000000000000",
      "blockNumber": "0x24bf1ba",
      "gasUsed": "0x22bee",
      "effectiveGasPrice": "0x5b8d80",
      "blobGasUsed": "0x364c",
      "from": "0x76bf0f26a080ec0dbe68c842c99b7f6a7cb116db",
      "to": "0x59ff05691a0f0c0e5a8bea315aa8ebcb934fffdf",
      "contractAddress": null,
      "daFootprintGasScalar": "0x8b",
      "l1BaseFeeScalar": "0x44d",
      "l1BlobBaseFee": "0x2a",
      "l1BlobBaseFeeScalar": "0xa118b",
      "l1Fee": "0xf51",
      "l1GasPrice": "0x28d",
      "l1GasUsed": "0x640"
    },
    {
      "status": "0x1",
      "cumulativeGasUsed": "0x2045a1",
      "logs": [
        {
          "address": "0x59ff05691a0f0c0e5a8bea315aa8ebcb934fffdf",
          "topics": [
            "0xe09c1fea8318354f0053fdd68105c144cc6c6989d6518c5934868930d966ed20",
            "0x0000000000000000000000000000000000000000000000000000000000000005",
            "0x0000000000000000000000006666666666666666666666666666666666666666"
          ],
          "data": "0x0000000000000000000000000000000000000000000000000000008026658000000000000000000000000000000000000000000000000000000000ba43b74000",
          "blockHash": "0x0000000000000000000000000000000000000000000000000000000000000000",
          "blockNumber": "0x24bf1ba",
          "blockTimestamp": "0x69ab4254",
          "transactionHash": "0xb1f87fea35dc9c47a44246f00c456df67a57c08fa642767bdff0c790017b2186",
          "transactionIndex": "0x10",
          "logIndex": "0x27",
          "removed": false
        }
      ],
      "logsBloom": "0x00000000000000000000000000000040000000000000000000000000000200000000000000000000000000000000000000000000000000000000000000000000000010000000000000000000000000000000000000000000000000000000000000000000000000000000000000000000000000008000000000000000000000000000000000000000100000000000001000000800000000000000008000000000000000000000000000000000800040000000000000000000000000000000000000000000000000000000000000000000000000000020000000000000000000000000000000000000000000000000004000000000000000000000000000000000",
      "type": "0x2",
      "transactionHash": "0xb1f87fea35dc9c47a44246f00c456df67a57c08fa642767bdff0c790017b2186",
      "transactionIndex": "0x10",
      "blockHash": "0x0000000000000000000000000000000000000000000000000000000000000000",
      "blockNumber": "0x24bf1ba",
      "gasUsed": "0x22bee",
      "effectiveGasPrice": "0x5b8d80",
      "blobGasUsed": "0x364c",
      "from": "0x76bf0f26a080ec0dbe68c842c99b7f6a7cb116db",
      "to": "0x59ff05691a0f0c0e5a8bea315aa8ebcb934fffdf",
      "contractAddress": null,
      "daFootprintGasScalar": "0x8b",
      "l1BaseFeeScalar": "0x44d",
      "l1BlobBaseFee": "0x2a",
      "l1BlobBaseFeeScalar": "0xa118b",
      "l1Fee": "0xf51",
      "l1GasPrice": "0x28d",
      "l1GasUsed": "0x640"
    },
    {
      "status": "0x1",
      "cumulativeGasUsed": "0x22718f",
      "logs": [
        {
          "address": "0x59ff05691a0f0c0e5a8bea315aa8ebcb934fffdf",
          "topics": [
            "0xe09c1fea8318354f0053fdd68105c144cc6c6989d6518c5934868930d966ed20",
            "0x0000000000000000000000000000000000000000000000000000000000000006",
            "0x0000000000000000000000007777777777777777777777777777777777777777"
          ],
          "data": "0x00000000000000000000000000000000000000000000000000000078b30c4000000000000000000000000000000000000000000000000000000000ba43b74000",
          "blockHash": "0x0000000000000000000000000000000000000000000000000000000000000000",
          "blockNumber": "0x24bf1ba",
          "blockTimestamp": "0x69ab4254",
          "transactionHash": "0x55b5cf4bc3655a648a0c255bd0c292ee2b6aa534f8ec02303d93ae3bd7b4014c",
          "transactionIndex": "0x11",
          "logIndex": "0x28",
          "removed": false
        }
      ],
      "logsBloom": "0x00000000000000000000000000000000000000000000000000000000000000000000000000000000000000000000000000000000000400000000000000000000000000000000000000000000000000000000000000000000000000000000000000000000000000000000000000000000000000008000000000000000000000000000000400000008100000000000000000000000000008000000088000000000000000000000000000000000800000000000000000000000000000080000000000000000000000000000000000000000000000000020000000000000000000000000000000000000000000000000004000000000000000000000000000000000",
      "type": "0x2",
      "transactionHash": "0x55b5cf4bc3655a648a0c255bd0c292ee2b6aa534f8ec02303d93ae3bd7b4014c",
      "transactionIndex": "0x11",
      "blockHash": "0x0000000000000000000000000000000000000000000000000000000000000000",
      "blockNumber": "0x24bf1ba",
      "gasUsed": "0x22bee",
      "effectiveGasPrice": "0x5b8d80",
      "blobGasUsed": "0x364c",
      "from": "0x76bf0f26a080ec0dbe68c842c99b7f6a7cb116db",
      "to": "0x59ff05691a0f0c0e5a8bea315aa8ebcb934fffdf",
      "contractAddress": null,
      "daFootprintGasScalar": "0x8b",
      "l1BaseFeeScalar": "0x44d",
      "l1BlobBaseFee": "0x2a",
      "l1BlobBaseFeeScalar": "0xa118b",
      "l1Fee": "0xf51",
      "l1GasPrice": "0x28d",
      "l1GasUsed": "0x640"
    },
    {
      "status": "0x1",
      "cumulativeGasUsed": "0x3b210d",
      "logs": [
        {
          "address": "0x59ff05691a0f0c0e5a8bea315aa8ebcb934fffdf",
          "topics": [
            "0xe09c1fea8318354f0053fdd68105c144cc6c6989d6518c5934868930d966ed20",
            "0x0000000000000000000000000000000000000000000000000000000000000007",
            "0x0000000000000000000000008888888888888888888888888888888888888888"
          ],
          "data": "0x00000000000000000000000000000000000000000000000000000075b81bc000000000000000000000000000000000000000000000000000000000ba43b74000",
          "blockHash": "0x0000000000000000000000000000000000000000000000000000000000000000",
          "blockNumber": "0x24bf1ba",
          "blockTimestamp": "0x69ab4254",
          "transactionHash": "0xcff9bcb89053ea8460712c9c554579f234fea3716620438936358daf303e59f5",
          "transactionIndex": "0x1a",
          "logIndex": "0x53",
          "removed": false
        }
      ],
      "logsBloom": "0x00000000000000000000000000200000000000000000000000000000000000000000000000000000000000000000000000001000000000000000000000000000000020000000000000000000000000000000000000000000000000000000000000000000000000000000000000000000000000008000000000000000000000000000000000000000100000000002000000000000000000000000008000000000000000000000000000002000800000000000000000000000000000000000000000000000000000000000000000000000000000000020000000000100000000000000000000000000000000000000004000000000000000000000000000000000",
      "type": "0x2",
      "transactionHash": "0xcff9bcb89053ea8460712c9c554579f234fea3716620438936358daf303e59f5",
      "transactionIndex": "0x1a",
      "blockHash": "0x0000000000000000000000000000000000000000000000000000000000000000",
      "blockNumber": "0x24bf1ba",
      "gasUsed": "0x22bee",
      "effectiveGasPrice": "0x5b8d80",
      "blobGasUsed": "0x364c",
      "from": "0x76bf0f26a080ec0dbe68c842c99b7f6a7cb116db",
      "to": "0x59ff05691a0f0c0e5a8bea315aa8ebcb934fffdf",
      "contractAddress": null,
      "daFootprintGasScalar": "0x8b",
      "l1BaseFeeScalar": "0x44d",
      "l1BlobBaseFee": "0x2a",
      "l1BlobBaseFeeScalar": "0xa118b",
      "l1Fee": "0xf51",
      "l1GasPrice": "0x28d",
      "l1GasUsed": "0x640"
    },
    {
      "status": "0x1",
      "cumulativeGasUsed": "0x3b8f70",
      "logs": [],
      "logsBloom": "0x00000000000000000000000000000000000000000000000000000000000000000000000000000000000000000000000000000000000000000000000000000000000000000000000000000000000000000000000000000000000000000000000000000000000000000000000000000000000000000000000000000000000000000000000000000000000000000000000000000000000000000000000000000000000000000000000000000000000000000000000000000000000000000000000000000000000000000000000000000000000000000000000000000000000000000000000000000000000000000000000000000000000000000000000000000000",
      "type": "0x2",
      "transactionHash": "0x6e20176adceb9d902cfcc0e2187b5d754826d24c35c6dc6801e435d948e1e83b",
      "transactionIndex": "0x1b",
      "blockHash": "0x0000000000000000000000000000000000000000000000000000000000000000",
      "blockNumber": "0x24bf1ba",
      "gasUsed": "0x6e63",
      "effectiveGasPrice": "0x5b8d80",
      "blobGasUsed": "0x364c",
      "from": "0x76bf0f26a080ec0dbe68c842c99b7f6a7cb116db",
      "to": "0x59ff05691a0f0c0e5a8bea315aa8ebcb934fffdf",
      "contractAddress": null,
      "daFootprintGasScalar": "0x8b",
      "l1BaseFeeScalar": "0x44d",
      "l1BlobBaseFee": "0x2a",
      "l1BlobBaseFeeScalar": "0xa118b",
      "l1Fee": "0xf51",
      "l1GasPrice": "0x28d",
      "l1GasUsed": "0x640"
    }
  ],
  "libraries": [],
  "pending": [],
  "returns": {},
  "timestamp": 1772831316042,
  "chain": 84532,
  "commit": "8a48d39"
}