{
  "transactions": [
    {
      "hash": "0x20736bce7550e3c2dd4767a699e0280c2ac5f965de056f367d1f5986ae950166",
      "transactionType": "CALL",
      "contractName": "MockInvalendProtocol",
      "contractAddress": "0x217f27a1824c6f915cb89f7c7604e6dd7c3cc478",
      "function": "addPosition(address,uint256,uint256)",
      "arguments": [
        "0x1111111111111111111111111111111111111111",
        "595200000000",
        "800000000000"
      ],
      "transaction": {
        "from": "0x76bf0f26a080ec0dbe68c842c99b7f6a7cb116db",
        "to": "0x217f27a1824c6f915cb89f7c7604e6dd7c3cc478",
        "gas": "0x2f0c4",
        "value": "0x0",
        "input": "0xcff07fd100000000000000000000000011111111111111111111111111111111111111110000000000000000000000000000000000000000000000000000008a94af4000000000000000000000000000000000000000000000000000000000ba43b74000",
        "nonce": "0xc2d",
        "chainId": "0x14a34"
      },
      "additionalContracts": [],
      "isFixedGasLimit": false
    },
    {
      "hash": "0xbaa71e948831d3227c7674feec5f0f5b87c2b970236eee0463895cc832776fc9",
      "transactionType": "CALL",
      "contractName": "MockInvalendProtocol",
      "contractAddress": "0x217f27a1824c6f915cb89f7c7604e6dd7c3cc478",
      "function": "addPosition(address,uint256,uint256)",
      "arguments": [
        "0x2222222222222222222222222222222222222222",
        "601600000000",
        "800000000000"
      ],
      "transaction": {
        "from": "0x76bf0f26a080ec0dbe68c842c99b7f6a7cb116db",
        "to": "0x217f27a1824c6f915cb89f7c7604e6dd7c3cc478",
        "gas": "0x2ffdf",
        "value": "0x0",
        "input": "0xcff07fd100000000000000000000000022222222222222222222222222222222222222220000000000000000000000000000000000000000000000000000008c12278000000000000000000000000000000000000000000000000000000000ba43b74000",
        "nonce": "0xc2e",
        "chainId": "0x14a34"
      },
      "additionalContracts": [],
      "isFixedGasLimit": false
    },
    {
      "hash": "0x7570ee399ed1c906d92fa7c49e3e665f863deafe1c85710726c3982b2769ff8f",
      "transactionType": "CALL",
      "contractName": "MockInvalendProtocol",
      "contractAddress": "0x217f27a1824c6f915cb89f7c7604e6dd7c3cc478",
      "function": "addPosition(address,uint256,uint256)",
      "arguments": [
        "0x3333333333333333333333333333333333333333",
        "608000000000",
        "800000000000"
      ],
      "transaction": {
        "from": "0x76bf0f26a080ec0dbe68c842c99b7f6a7cb116db",
        "to": "0x217f27a1824c6f915cb89f7c7604e6dd7c3cc478",
        "gas": "0x2ffdf",
        "value": "0x0",
        "input": "0xcff07fd100000000000000000000000033333333333333333333333333333333333333330000000000000000000000000000000000000000000000000000008d8f9fc000000000000000000000000000000000000000000000000000000000ba43b74000",
        "nonce": "0xc2f",
        "chainId": "0x14a34"
      },
      "additionalContracts": [],
      "isFixedGasLimit": false
    },
    {
      "hash": "0x38c46b8dc1ed02e600344c92f610912467bc9e7429fe9f3d2d98ef79f15151ef",
      "transactionType": "CALL",
      "contractName": "MockInvalendProtocol",
      "contractAddress": "0x217f27a1824c6f915cb89f7c7604e6dd7c3cc478",
      "function": "addPosition(address,uint256,uint256)",
      "arguments": [
        "0x4444444444444444444444444444444444444444",
        "537600000000",
        "800000000000"
      ],
      "transaction": {
        "from": "0x76bf0f26a080ec0dbe68c842c99b7f6a7cb116db",
        "to": "0x217f27a1824c6f915cb89f7c7604e6dd7c3cc478",
        "gas": "0x32cfa",
        "value": "0x0",
        "input": "0xcff07fd100000000000000000000000044444444444444444444444444444444444444440000000000000000000000000000000000000000000000000000007d2b750000000000000000000000000000000000000000000000000000000000ba43b74000",
        "nonce": "0xc30",
        "chainId": "0x14a34"
      },
      "additionalContracts": [],
      "isFixedGasLimit": false
    },
    {
      "hash": "0x8708e1103ef73478712f9c92b9ab9de1ca304bb58b05c9bd6d5569b63e22bcd8",
      "transactionType": "CALL",
      "contractName": "MockInvalendProtocol",
      "contractAddress": "0x217f27a1824c6f915cb89f7c7604e6dd7c3cc478",
      "function": "addPosition(address,uint256,uint256)",
      "arguments": [
        "0x5555555555555555555555555555555555555555",
        "544000000000",
        "800000000000"
      ],
      "transaction": {
        "from": "0x76bf0f26a080ec0dbe68c842c99b7f6a7cb116db",
        "to": "0x217f27a1824c6f915cb89f7c7604e6dd7c3cc478",
        "gas": "0x2ffdf",
        "value": "0x0",
        "input": "0xcff07fd100000000000000000000000055555555555555555555555555555555555555550000000000000000000000000000000000000000000000000000007ea8ed4000000000000000000000000000000000000000000000000000000000ba43b74000",
        "nonce": "0xc31",
        "chainId": "0x14a34"
      },
      "additionalContracts": [],
      "isFixedGasLimit": false
    },
    {
      "hash": "0x0f78e8bd330a5e43f2b8278c2e06544e59fdadb0d25b58435e6cdc0012bc5312",
      "transactionType": "CALL",
      "contractName": "MockInvalendProtocol",
      "contractAddress": "0x217f27a1824c6f915cb89f7c7604e6dd7c3cc478",
      "function": "addPosition(address,uint256,uint256)",
      "arguments": [
        "0x6666666666666666666666666666666666666666",
        "550400000000",
        "800000000000"
      ],
      "transaction": {
        "from": "0x76bf0f26a080ec0dbe68c842c99b7f6a7cb116db",
        "to": "0x217f27a1824c6f915cb89f7c7604e6dd7c3cc478",
        "gas": "0x2ffdf",
        "value": "0x0",
        "input": "0xcff07fd100000000000000000000000066666666666666666666666666666666666666660000000000000000000000000000000000000000000000000000008026658000000000000000000000000000000000000000000000000000000000ba43b74000",
        "nonce": "0xc32",
        "chainId": "0x14a34"
      },
      "additionalContracts": [],
      "isFixedGasLimit": false
    },
    {
      "hash": "0x0695439d6130b8310b21613ce86737ded3b477b2ab03c076e24065f163c26124",
      "transactionType": "CALL",
      "contractName": "MockInvalendProtocol",
      "contractAddress": "0x217f27a1824c6f915cb89f7c7604e6dd7c3cc478",
      "function": "addPosition(address,uint256,uint256)",
      "arguments": [
        "0x7777777777777777777777777777777777777777",
        "518400000000",
        "800000000000"
      ],
      "transaction": {
        "from": "0x76bf0f26a080ec0dbe68c842c99b7f6a7cb116db",
        "to": "0x217f27a1824c6f915cb89f7c7604e6dd7c3cc478",
        "gas": "0x2ffdf",
        "value": "0x0",
        "input": "0xcff07fd1000000000000000000000000777777777777777777777777777777777777777700000000000000000000000000000000000000000000000000000078b30c4000000000000000000000000000000000000000000000000000000000ba43b74000",
        "nonce": "0xc33",
        "chainId": "0x14a34"
      },
      "additionalContracts": [],
      "isFixedGasLimit": false
    },
    {
      "hash": "0x1135c61da9925176aa772598805922fbd36afc4283f06b97989370f8179412d1",
      "transactionType": "CALL",
      "contractName": "MockInvalendProtocol",
      "contractAddress": "0x217f27a1824c6f915cb89f7c7604e6dd7c3cc478",
      "function": "addPosition(address,uint256,uint256)",
      "arguments": [
        "0x8888888888888888888888888888888888888888",
        "505600000000",
        "800000000000"
      ],
      "transaction": {
        "from": "0x76bf0f26a080ec0dbe68c842c99b7f6a7cb116db",
        "to": "0x217f27a1824c6f915cb89f7c7604e6dd7c3cc478",
        "gas": "0x2ffdf",
        "value": "0x0",
        "input": "0xcff07fd1000000000000000000000000888888888888888888888888888888888888888800000000000000000000000000000000000000000000000000000075b81bc000000000000000000000000000000000000000000000000000000000ba43b74000",
        "nonce": "0xc34",
        "chainId": "0x14a34"
      },
      "additionalContracts": [],
      "isFixedGasLimit": false
    },
    {
      "hash": "0x8da1d6365b4dcdece9eefc9d844905acbcf83accdf5da08f67a7e05ccd9e21d0",
      "transactionType": "CALL",
      "contractName": "MockInvalendProtocol",
      "contractAddress": "0x217f27a1824c6f915cb89f7c7604e6dd7c3cc478",
      "function": "setPoolStats(uint256,uint256)",
      "arguments": [
        "1000000000000",
        "650000000000"
      ],
      "transaction": {
        "from": "0x76bf0f26a080ec0dbe68c842c99b7f6a7cb116db",
        "to": "0x217f27a1824c6f915cb89f7c7604e6dd7c3cc478",
        "gas": "0xa170",
        "value": "0x0",
        "input": "0x1a72bfa5000000000000000000000000000000000000000000000000000000e8d4a51000000000000000000000000000000000000000000000000000000000975704e400",
        "nonce": "0xc35",
        "chainId": "0x14a34"
      },
      "additionalContracts": [],
      "isFixedGasLimit": false
    }
  ],
  "receipts": [
    {
      "status": "0x1",
      "cumulativeGasUsed": "0x180184",
      "logs": [
        {
          "address": "0x217f27a1824c6f915cb89f7c7604e6dd7c3cc478",
          "topics": [
            "0xe09c1fea8318354f0053fdd68105c144cc6c6989d6518c5934868930d966ed20",
            "0x0000000000000000000000000000000000000000000000000000000000000000",
            "0x0000000000000000000000001111111111111111111111111111111111111111"
          ],
          "data": "0x0000000000000000000000000000000000000000000000000000008a94af4000000000000000000000000000000000000000000000000000000000ba43b74000",
          "blockHash": "0x0000000000000000000000000000000000000000000000000000000000000000",
          "blockNumber": "0x24a8454",
          "blockTimestamp": "0x69a86788",
          "transactionHash": "0x20736bce7550e3c2dd4767a699e0280c2ac5f965de056f367d1f5986ae950166",
          "transactionIndex": "0xe",
          "logIndex": "0x1e",
          "removed": false
        }
      ],
      "logsBloom": "0x00000000000000000000000000000000000000000000000000000000000000000000000000000000000000000000000000000100000000000000000000000000000000000000000000000000000000000000000000000000000000000000000000000000020000000000000000000800000000008000000000000000000200000000000000000000100000000000000002000000000000000000008000000000240000000000000000800000000000000000000000000000000000000000000000000000000000000000000000000000000000000000000000000000000020000000000000000000000000000000000000000000000000000000000000000000",
      "type": "0x2",
      "transactionHash": "0x20736bce7550e3c2dd4767a699e0280c2ac5f965de056f367d1f5986ae950166",
      "transactionIndex": "0xe",
      "blockHash": "0x0000000000000000000000000000000000000000000000000000000000000000",
      "blockNumber": "0x24a8454",
      "gasUsed": "0x220fe",
      "effectiveGasPrice": "0x5b8d80",
      "blobGasUsed": "0x364c",
      "from": "0x76bf0f26a080ec0dbe68c842c99b7f6a7cb116db",
      "to": "0x217f27a1824c6f915cb89f7c7604e6dd7c3cc478",
      "contractAddress": null,
      "daFootprintGasScalar": "0x8b",
      "l1BaseFeeScalar": "0x44d",
      "l1BlobBaseFee": "0x1",
      "l1BlobBaseFeeScalar": "0xa118b",
      "l1Fee": "0x55",
      "l1GasPrice": "0xb",
      "l1GasUsed": "0x640"
    },
    {
      "status": "0x1",
      "cumulativeGasUsed": "0x28278f",
      "logs": [
        {
          "address": "0x217f27a1824c6f915cb89f7c7604e6dd7c3cc478",
          "topics": [
            "0xe09c1fea8318354f0053fdd68105c144cc6c6989d6518c5934868930d966ed20",
            "0x0000000000000000000000000000000000000000000000000000000000000001",
            "0x0000000000000000000000002222222222222222222222222222222222222222"
          ],
          "data": "0x0000000000000000000000000000000000000000000000000000008c12278000000000000000000000000000000000000000000000000000000000ba43b74000",
          "blockHash": "0x0000000000000000000000000000000000000000000000000000000000000000",
          "blockNumber": "0x24a8454",
          "blockTimestamp": "0x69a86788",
          "transactionHash": "0xbaa71e948831d3227c7674feec5f0f5b87c2b970236eee0463895cc832776fc9",
          "transactionIndex": "0x10",
          "logIndex": "0x2a",
          "removed": false
        }
      ],
      "logsBloom": "0x00000000000000000000000000000000000000000000000000000000000000000000000000000000000000000000000000080100000000000000000020040000000000000000000000000000000000000000000000040000000000000000000000000000000000000000000000000000000000008000000000000000000000000000000000000000100000000000000002000000000000000000008000000000000000000000000000800000000000000000000000000000000000000000000000000000000000000000000000000000000000000000000000000000000040000000000000000000000000000000000000000800000000000000000000000000",
      "type": "0x2",
      "transactionHash": "0xbaa71e948831d3227c7674feec5f0f5b87c2b970236eee0463895cc832776fc9",
      "transactionIndex": "0x10",
      "blockHash": "0x0000000000000000000000000000000000000000000000000000000000000000",
      "blockNumber": "0x24a8454",
      "gasUsed": "0x22bee",
      "effectiveGasPrice": "0x5b8d80",
      "blobGasUsed": "0x364c",
      "from": "0x76bf0f26a080ec0dbe68c842c99b7f6a7cb116db",
      "to": "0x217f27a1824c6f915cb89f7c7604e6dd7c3cc478",
      "contractAddress": null,
      "daFootprintGasScalar": "0x8b",
      "l1BaseFeeScalar": "0x44d",
      "l1BlobBaseFee": "0x1",
      "l1BlobBaseFeeScalar": "0xa118b",
      "l1Fee": "0x55",
      "l1GasPrice": "0xb",
      "l1GasUsed": "0x640"
    },
    {
      "status": "0x1",
      "cumulativeGasUsed": "0x2a537d",
      "logs": [
        {
          "address": "0x217f27a1824c6f915cb89f7c7604e6dd7c3cc478",
          "topics": [
            "0xe09c1fea8318354f0053fdd68105c144cc6c6989d6518c5934868930d966ed20",
            "0x0000000000000000000000000000000000000000000000000000000000000002",
            "0x0000000000000000000000003333333333333333333333333333333333333333"
          ],
          "data": "0x0000000000000000000000000000000000000000000000000000008d8f9fc000000000000000000000000000000000000000000000000000000000ba43b74000",
          "blockHash": "0x0000000000000000000000000000000000000000000000000000000000000000",
          "blockNumber": "0x24a8454",
          "blockTimestamp": "0x69a86788",
          "transactionHash": "0x7570ee399ed1c906d92fa7c49e3e665f863deafe1c85710726c3982b2769ff8f",
          "transactionIndex": "0x11",
          "logIndex": "0x2b",
          "removed": false
        }
      ],
      "logsBloom": "0x04000000000000000000000000000002000000000000000000000000000000000000000000000000000000000000000000000100000004000000000000000000000000000000000000000000000000000000000000000000000000000000000000000000000000000000000000000000000000008000000000000000000000000000000000000000100000000000000002000000000000000000008000000000000000000000000000800100000000000000000000000000000000000000000000000000000000000000000000000000000000000000000000000000000000000000000000000000000000000000000000000000108000000000000000000000",
      "type": "0x2",
      "transactionHash": "0x7570ee399ed1c906d92fa7c49e3e665f863deafe1c85710726c3982b2769ff8f",
      "transactionIndex": "0x11",
      "blockHash": "0x0000000000000000000000000000000000000000000000000000000000000000",
      "blockNumber": "0x24a8454",
      "gasUsed": "0x22bee",
      "effectiveGasPrice": "0x5b8d80",
      "blobGasUsed": "0x364c",
      "from": "0x76bf0f26a080ec0dbe68c842c99b7f6a7cb116db",
      "to": "0x217f27a1824c6f915cb89f7c7604e6dd7c3cc478",
      "contractAddress": null,
      "daFootprintGasScalar": "0x8b",
      "l1BaseFeeScalar": "0x44d",
      "l1BlobBaseFee": "0x1",
      "l1BlobBaseFeeScalar": "0xa118b",
      "l1Fee": "0x55",
      "l1GasPrice": "0xb",
      "l1GasUsed": "0x640"
    },
    {
      "status": "0x1",
      "cumulativeGasUsed": "0x2c7f5f",
      "logs": [
        {
          "address": "0x217f27a1824c6f915cb89f7c7604e6dd7c3cc478",
          "topics": [
            "0xe09c1fea8318354f0053fdd68105c144cc6c6989d6518c5934868930d966ed20",
            "0x0000000000000000000000000000000000000000000000000000000000000003",
            "0x0000000000000000000000004444444444444444444444444444444444444444"
          ],
          "data": "0x0000000000000000000000000000000000000000000000000000007d2b750000000000000000000000000000000000000000000000000000000000ba43b74000",
          "blockHash": "0x0000000000000000000000000000000000000000000000000000000000000000",
          "blockNumber": "0x24a8454",
          "blockTimestamp": "0x69a86788",
          "transactionHash": "0x38c46b8dc1ed02e600344c92f610912467bc9e7429fe9f3d2d98ef79f15151ef",
          "transactionIndex": "0x12",
          "logIndex": "0x2c",
          "removed": false
        }
      ],
      "logsBloom": "0x00000000000000000000000000000000000000000000000000000000000000000200000000000000000000000000000000000100020000000000000000000000000000000000000000000000000000000000000000000000000000000000000000000000000080000000000000000000000000008000000000000000000000000000000000000000100000000000000002000000000000000000008000000000000000000000000000800000000000000000000000800000000000000000400000000000000000000000000000000040000000000000000000000000000000000000000000000000000000000000000000000000000000000000000000000000",
      "type": "0x2",
      "transactionHash": "0x38c46b8dc1ed02e600344c92f610912467bc9e7429fe9f3d2d98ef79f15151ef",
      "transactionIndex": "0x12",
      "blockHash": "0x0000000000000000000000000000000000000000000000000000000000000000",
      "blockNumber": "0x24a8454",
      "gasUsed": "0x22be2",
      "effectiveGasPrice": "0x5b8d80",
      "blobGasUsed": "0x364c",
      "from": "0x76bf0f26a080ec0dbe68c842c99b7f6a7cb116db",
      "to": "0x217f27a1824c6f915cb89f7c7604e6dd7c3cc478",
      "contractAddress": null,
      "daFootprintGasScalar": "0x8b",
      "l1BaseFeeScalar": "0x44d",
      "l1BlobBaseFee": "0x1",
      "l1BlobBaseFeeScalar": "0xa118b",
      "l1Fee": "0x55",
      "l1GasPrice": "0xb",
      "l1GasUsed": "0x640"
    },
    {
      "status": "0x1",
      "cumulativeGasUsed": "0x2eab4d",
      "logs": [
        {
          "address": "0x217f27a1824c6f915cb89f7c7604e6dd7c3cc478",
          "topics": [
            "0xe09c1fea8318354f0053fdd68105c144cc6c6989d6518c5934868930d966ed20",
            "0x0000000000000000000000000000000000000000000000000000000000000004",
            "0x0000000000000000000000005555555555555555555555555555555555555555"
          ],
          "data": "0x0000000000000000000000000000000000000000000000000000007ea8ed4000000000000000000000000000000000000000000000000000000000ba43b74000",
          "blockHash": "0x0000000000000000000000000000000000000000000000000000000000000000",
          "blockNumber": "0x24a8454",
          "blockTimestamp": "0x69a86788",
          "transactionHash": "0x8708e1103ef73478712f9c92b9ab9de1ca304bb58b05c9bd6d5569b63e22bcd8",
          "transactionIndex": "0x13",
          "logIndex": "0x2d",
          "removed": false
        }
      ],
      "logsBloom": "0x00000000000000000000000000000000000000000000000000000000000000000000000000000000000000000000000000000100040000000000000000000000000000000000000000000000000000000000000000000000000000000000000008000000000000000000000000000000000001008000000000000000000000000000000000000000100000000000000002000000000000000000008000000000000000000000000000800000000000000000000000000000002000000000000000000000000000000000000000000000000000008000000000000000000000000000000800000000000000000000000000000000000000000000000000000000",
      "type": "0x2",
      "transactionHash": "0x8708e1103ef73478712f9c92b9ab9de1ca304bb58b05c9bd6d5569b63e22bcd8",
      "transactionIndex": "0x13",
      "blockHash": "0x0000000000000000000000000000000000000000000000000000000000000000",
      "blockNumber": "0x24a8454",
      "gasUsed": "0x22bee",
      "effectiveGasPrice": "0x5b8d80",
      "blobGasUsed": "0x364c",
      "from": "0x76bf0f26a080ec0dbe68c842c99b7f6a7cb116db",
      "to": "0x217f27a1824c6f915cb89f7c7604e6dd7c3cc478",
      "contractAddress": null,
      "daFootprintGasScalar": "0x8b",
      "l1BaseFeeScalar": "0x44d",
      "l1BlobBaseFee": "0x1",
      "l1BlobBaseFeeScalar": "0xa118b",
      "l1Fee": "0x55",
      "l1GasPrice": "0xb",
      "l1GasUsed": "0x640"
    },
    {
      "status": "0x1",
      "cumulativeGasUsed": "0x30d73b",
      "logs": [
        {
          "address": "0x217f27a1824c6f915cb89f7c7604e6dd7c3cc478",
          "topics": [
            "0xe09c1fea8318354f0053fdd68105c144cc6c6989d6518c5934868930d966ed20",
            "0x0000000000000000000000000000000000000000000000000000000000000005",
            "0x0000000000000000000000006666666666666666666666666666666666666666"
          ],
          "data": "0x0000000000000000000000000000000000000000000000000000008026658000000000000000000000000000000000000000000000000000000000ba43b74000",
          "blockHash": "0x0000000000000000000000000000000000000000000000000000000000000000",
          "blockNumber": "0x24a8454",
          "blockTimestamp": "0x69a86788",
          "transactionHash": "0x0f78e8bd330a5e43f2b8278c2e06544e59fdadb0d25b58435e6cdc0012bc5312",
          "transactionIndex": "0x14",
          "logIndex": "0x2e",
          "removed": false
        }
      ],
      "logsBloom": "0x00000000000000000000000000000040000000000000000000000000000200000000000000000000000000000000000000000100000000000000000000000000000010000000000000000000000000000000000000000000000000000000000000000000000000000000000000000000000000008000000000000000000000000000000000000000100000000000001002000800000000000000008000000000000000000000000000800000000040000000000000000000000000000000000000000000000000000000000000000000000000000000000000000000000000000000000000000000000000000000000000000000000000000000000000000000",
      "type": "0x2",
      "transactionHash": "0x0f78e8bd330a5e43f2b8278c2e06544e59fdadb0d25b58435e6cdc0012bc5312",
      "transactionIndex": "0x14",
      "blockHash": "0x0000000000000000000000000000000000000000000000000000000000000000",
      "blockNumber": "0x24a8454",
      "gasUsed": "0x22bee",
      "effectiveGasPrice": "0x5b8d80",
      "blobGasUsed": "0x364c",
      "from": "0x76bf0f26a080ec0dbe68c842c99b7f6a7cb116db",
      "to": "0x217f27a1824c6f915cb89f7c7604e6dd7c3cc478",
      "contractAddress": null,
      "daFootprintGasScalar": "0x8b",
      "l1BaseFeeScalar": "0x44d",
      "l1BlobBaseFee": "0x1",
      "l1BlobBaseFeeScalar": "0xa118b",
      "l1Fee": "0x55",
      "l1GasPrice": "0xb",
      "l1GasUsed": "0x640"
    },
    {
      "status": "0x1",
      "cumulativeGasUsed": "0x330329",
      "logs": [
        {
          "address": "0x217f27a1824c6f915cb89f7c7604e6dd7c3cc478",
          "topics": [
            "0xe09c1fea8318354f0053fdd68105c144cc6c6989d6518c5934868930d966ed20",
            "0x0000000000000000000000000000000000000000000000000000000000000006",
            "0x0000000000000000000000007777777777777777777777777777777777777777"
          ],
          "data": "0x00000000000000000000000000000000000000000000000000000078b30c4000000000000000000000000000000000000000000000000000000000ba43b74000",
          "blockHash": "0x0000000000000000000000000000000000000000000000000000000000000000",
          "blockNumber": "0x24a8454",
          "blockTimestamp": "0x69a86788",
          "transactionHash": "0x0695439d6130b8310b21613ce86737ded3b477b2ab03c076e24065f163c26124",
          "transactionIndex": "0x15",
          "logIndex": "0x2f",
          "removed": false
        }
      ],
      "logsBloom": "0x00000000000000000000000000000000000000000000000000000000000000000000000000000000000000000000000000000100000400000000000000000000000000000000000000000000000000000000000000000000000000000000000000000000000000000000000000000000000000008000000000000000000000000000000400000008100000000000000002000000000008000000088000000000000000000000000000800000000000000000000000000000000000080000000000000000000000000000000000000000000000000000000000000000000000000000000000000000000000000000000000000000000000000000000000000000",
      "type": "0x2",
      "transactionHash": "0x0695439d6130b8310b21613ce86737ded3b477b2ab03c076e24065f163c26124",
      "transactionIndex": "0x15",
      "blockHash": "0x0000000000000000000000000000000000000000000000000000000000000000",
      "blockNumber": "0x24a8454",
      "gasUsed": "0x22bee",
      "effectiveGasPrice": "0x5b8d80",
      "blobGasUsed": "0x364c",
      "from": "0x76bf0f26a080ec0dbe68c842c99b7f6a7cb116db",
      "to": "0x217f27a1824c6f915cb89f7c7604e6dd7c3cc478",
      "contractAddress": null,
      "daFootprintGasScalar": "0x8b",
      "l1BaseFeeScalar": "0x44d",
      "l1BlobBaseFee": "0x1",
      "l1BlobBaseFeeScalar": "0xa118b",
      "l1Fee": "0x55",
      "l1GasPrice": "0xb",
      "l1GasUsed": "0x640"
    },
    {
      "status": "0x1",
      "cumulativeGasUsed": "0x38c0aa",
      "logs": [
        {
          "address": "0x217f27a1824c6f915cb89f7c7604e6dd7c3cc478",
          "topics": [
            "0xe09c1fea8318354f0053fdd68105c144cc6c6989d6518c5934868930d966ed20",
            "0x0000000000000000000000000000000000000000000000000000000000000007",
            "0x0000000000000000000000008888888888888888888888888888888888888888"
          ],
          "data": "0x00000000000000000000000000000000000000000000000000000075b81bc000000000000000000000000000000000000000000000000000000000ba43b74000",
          "blockHash": "0x0000000000000000000000000000000000000000000000000000000000000000",
          "blockNumber": "0x24a8454",
          "blockTimestamp": "0x69a86788",
          "transactionHash": "0x1135c61da9925176aa772598805922fbd36afc4283f06b97989370f8179412d1",
          "transactionIndex": "0x1b",
          "logIndex": "0x32",
          "removed": false
        }
      ],
      "logsBloom": "0x00000000000000000000000000200000000000000000000000000000000000000000000000000000000000000000000000001100000000000000000000000000000020000000000000000000000000000000000000000000000000000000000000000000000000000000000000000000000000008000000000000000000000000000000000000000100000000002000002000000000000000000008000000000000000000000000000802000000000000000000000000000000000000000000000000000000000000000000000000000000000000000000000000100000000000000000000000000000000000000000000000000000000000000000000000000",
      "type": "0x2",
      "transactionHash": "0x1135c61da9925176aa772598805922fbd36afc4283f06b97989370f8179412d1",
      "transactionIndex": "0x1b",
      "blockHash": "0x0000000000000000000000000000000000000000000000000000000000000000",
      "blockNumber": "0x24a8454",
      "gasUsed": "0x22bee",
      "effectiveGasPrice": "0x5b8d80",
      "blobGasUsed": "0x364c",
      "from": "0x76bf0f26a080ec0dbe68c842c99b7f6a7cb116db",
      "to": "0x217f27a1824c6f915cb89f7c7604e6dd7c3cc478",
      "contractAddress": null,
      "daFootprintGasScalar": "0x8b",
      "l1BaseFeeScalar": "0x44d",
      "l1BlobBaseFee": "0x1",
      "l1BlobBaseFeeScalar": "0xa118b",
      "l1Fee": "0x55",
      "l1GasPrice": "0xb",
      "l1GasUsed": "0x640"
    },
    {
      "status": "0x1",
      "cumulativeGasUsed": "0x392f0d",
      "logs": [],
      "logsBloom": "0x00000000000000000000000000000000000000000000000000000000000000000000000000000000000000000000000000000000000000000000000000000000000000000000000000000000000000000000000000000000000000000000000000000000000000000000000000000000000000000000000000000000000000000000000000000000000000000000000000000000000000000000000000000000000000000000000000000000000000000000000000000000000000000000000000000000000000000000000000000000000000000000000000000000000000000000000000000000000000000000000000000000000000000000000000000000",
      "type": "0x2",
      "transactionHash": "0x8da1d6365b4dcdece9eefc9d844905acbcf83accdf5da08f67a7e05ccd9e21d0",
      "transactionIndex": "0x1c",
      "blockHash": "0x0000000000000000000000000000000000000000000000000000000000000000",
      "blockNumber": "0x24a8454",
      "gasUsed": "0x6e63",
      "effectiveGasPrice": "0x5b8d80",
      "blobGasUsed": "0x364c",
      "from": "0x76bf0f26a080ec0dbe68c842c99b7f6a7cb116db",
      "to": "0x217f27a1824c6f915cb89f7c7604e6dd7c3cc478",
      "contractAddress": null,
      "daFootprintGasScalar": "0x8b",
      "l1BaseFeeScalar": "0x44d",
      "l1BlobBaseFee": "0x1",
      "l1BlobBaseFeeScalar": "0xa118b",
      "l1Fee": "0x55",
      "l1GasPrice": "0xb",
      "l1GasUsed": "0x640"
    }
  ],
  "libraries": [],
  "pending": [],
  "returns": {},
  "timestamp": 1772644231963,
  "chain": 84532,
  "commit": "c0e531f"
}