{
  "transactions": [
    {
      "hash": "0xae8a9966361821926d9ccea128943c37b87eb528efd4a501f9f78fd16158f552",
      "transactionType": "CALL",
      "contractName": null,
      "contractAddress": "0x59ff05691a0f0c0e5a8bea315aa8ebcb934fffdf",
      "function": "resetPositions()",
      "arguments": [],
      "transaction": {
        "from": "0x76bf0f26a080ec0dbe68c842c99b7f6a7cb116db",
        "to": "0x59ff05691a0f0c0e5a8bea315aa8ebcb934fffdf",
        "gas": "0x97b2",
        "value": "0x0",
        "input": "0x3d858692",
        "nonce": "0xc58",
        "chainId": "0x14a34"
      },
      "additionalContracts": [],
      "isFixedGasLimit": false
    },
    {
      "hash": "0xd7bbbbdf94115c59690d90429d125bd07fac83fc22388626956c4e6ef57a01d1",
      "transactionType": "CALL",
      "contractName": null,
      "contractAddress": "0x59ff05691a0f0c0e5a8bea315aa8ebcb934fffdf",
      "function": "addPosition(address,uint256,uint256)",
      "arguments": [
        "0x1111111111111111111111111111111111111111",
        "595200000000",
        "800000000000"
      ],
      "transaction": {
        "from": "0x76bf0f26a080ec0dbe68c842c99b7f6a7cb116db",
        "to": "0x59ff05691a0f0c0e5a8bea315aa8ebcb934fffdf",
        "gas": "0x2f0c4",
        "value": "0x0",
        "input": "0xcff07fd100000000000000000000000011111111111111111111111111111111111111110000000000000000000000000000000000000000000000000000008a94af4000000000000000000000000000000000000000000000000000000000ba43b74000",
        "nonce": "0xc59",
        "chainId": "0x14a34"
      },
      "additionalContracts": [],
      "isFixedGasLimit": false
    },
    {
      "hash": "0x1190f82f7d28145781352de02c8f75e94fb24a4d4a7e0d9d910a1603b479092d",
      "transactionType": "CALL",
      "contractName": null,
      "contractAddress": "0x59ff05691a0f0c0e5a8bea315aa8ebcb934fffdf",
      "function": "addPosition(address,uint256,uint256)",
      "arguments": [
        "0x2222222222222222222222222222222222222222",
        "601600000000",
        "800000000000"
      ],
      "transaction": {
        "from": "0x76bf0f26a080ec0dbe68c842c99b7f6a7cb116db",
        "to": "0x59ff05691a0f0c0e5a8bea315aa8ebcb934fffdf",
        "gas": "0x2ffdf",
        "value": "0x0",
        "input": "0xcff07fd100000000000000000000000022222222222222222222222222222222222222220000000000000000000000000000000000000000000000000000008c12278000000000000000000000000000000000000000000000000000000000ba43b74000",
        "nonce": "0xc5a",
        "chainId": "0x14a34"
      },
      "additionalContracts": [],
      "isFixedGasLimit": false
    },
    {
      "hash": "0x119ee3ac1d38bf0cbce387aedd9617218c1695a9117472a1b7a993bbaad003a1",
      "transactionType": "CALL",
      "contractName": null,
      "contractAddress": "0x59ff05691a0f0c0e5a8bea315aa8ebcb934fffdf",
      "function": "addPosition(address,uint256,uint256)",
      "arguments": [
        "0x3333333333333333333333333333333333333333",
        "608000000000",
        "800000000000"
      ],
      "transaction": {
        "from": "0x76bf0f26a080ec0dbe68c842c99b7f6a7cb116db",
        "to": "0x59ff05691a0f0c0e5a8bea315aa8ebcb934fffdf",
        "gas": "0x2ffdf",
        "value": "0x0",
        "input": "0xcff07fd100000000000000000000000033333333333333333333333333333333333333330000000000000000000000000000000000000000000000000000008d8f9fc000000000000000000000000000000000000000000000000000000000ba43b74000",
        "nonce": "0xc5b",
        "chainId": "0x14a34"
      },
      "additionalContracts": [],
      "isFixedGasLimit": false
    },
    {
      "hash": "0x43e75ecbc20a9530d2c06c817d07ef46421d61170d35b9582ae74ca30478e70a",
      "transactionType": "CALL",
      "contractName": null,
      "contractAddress": "0x59ff05691a0f0c0e5a8bea315aa8ebcb934fffdf",
      "function": "addPosition(address,uint256,uint256)",
      "arguments": [
        "0x4444444444444444444444444444444444444444",
        "537600000000",
        "800000000000"
      ],
      "transaction": {
        "from": "0x76bf0f26a080ec0dbe68c842c99b7f6a7cb116db",
        "to": "0x59ff05691a0f0c0e5a8bea315aa8ebcb934fffdf",
        "gas": "0x32cfa",
        "value": "0x0",
        "input": "0xcff07fd100000000000000000000000044444444444444444444444444444444444444440000000000000000000000000000000000000000000000000000007d2b750000000000000000000000000000000000000000000000000000000000ba43b74000",
        "nonce": "0xc5c",
        "chainId": "0x14a34"
      },
      "additionalContracts": [],
      "isFixedGasLimit": false
    },
    {
      "hash": "0xc91fb01c970b907247e8b4d02d2223772dc5c3b36119d1e180d2f65d17a28753",
      "transactionType": "CALL",
      "contractName": null,
      "contractAddress": "0x59ff05691a0f0c0e5a8bea315aa8ebcb934fffdf",
      "function": "addPosition(address,uint256,uint256)",
      "arguments": [
        "0x5555555555555555555555555555555555555555",
        "544000000000",
        "800000000000"
      ],
      "transaction": {
        "from": "0x76bf0f26a080ec0dbe68c842c99b7f6a7cb116db",
        "to": "0x59ff05691a0f0c0e5a8bea315aa8ebcb934fffdf",
        "gas": "0x2ffdf",
        "value": "0x0",
        "input": "0xcff07fd100000000000000000000000055555555555555555555555555555555555555550000000000000000000000000000000000000000000000000000007ea8ed4000000000000000000000000000000000000000000000000000000000ba43b74000",
        "nonce": "0xc5d",
        "chainId": "0x14a34"
      },
      "additionalContracts": [],
      "isFixedGasLimit": false
    },
    {
      "hash": "0x20da49e10b5a8b85a4dbe27a4772834d03488766bed9f3ca7996523e66d2a7a4",
      "transactionType": "CALL",
      "contractName": null,
      "contractAddress": "0x59ff05691a0f0c0e5a8bea315aa8ebcb934fffdf",
      "function": "addPosition(address,uint256,uint256)",
      "arguments": [
        "0x6666666666666666666666666666666666666666",
        "550400000000",
        "800000000000"
      ],
      "transaction": {
        "from": "0x76bf0f26a080ec0dbe68c842c99b7f6a7cb116db",
        "to": "0x59ff05691a0f0c0e5a8bea315aa8ebcb934fffdf",
        "gas": "0x2ffdf",
        "value": "0x0",
        "input": "0xcff07fd100000000000000000000000066666666666666666666666666666666666666660000000000000000000000000000000000000000000000000000008026658000000000000000000000000000000000000000000000000000000000ba43b74000",
        "nonce": "0xc5e",
        "chainId": "0x14a34"
      },
      "additionalContracts": [],
      "isFixedGasLimit": false
    },
    {
      "hash": "0xf9873cbf209afae6b836070c118e2ab9c82815019c4fe9ab5bf269247328512e",
      "transactionType": "CALL",
      "contractName": null,
      "contractAddress": "0x59ff05691a0f0c0e5a8bea315aa8ebcb934fffdf",
      "function": "addPosition(address,uint256,uint256)",
      "arguments": [
        "0x7777777777777777777777777777777777777777",
        "518400000000",
        "800000000000"
      ],
      "transaction": {
        "from": "0x76bf0f26a080ec0dbe68c842c99b7f6a7cb116db",
        "to": "0x59ff05691a0f0c0e5a8bea315aa8ebcb934fffdf",
        "gas": "0x2ffdf",
        "value": "0x0",
        "input": "0xcff07fd1000000000000000000000000777777777777777777777777777777777777777700000000000000000000000000000000000000000000000000000078b30c4000000000000000000000000000000000000000000000000000000000ba43b74000",
        "nonce": "0xc5f",
        "chainId": "0x14a34"
      },
      "additionalContracts": [],
      "isFixedGasLimit": false
    },
    {
      "hash": "0x29cd86749bc3f4a3bd912c30d5a1259c5410b8163fd704c5bd2ef8f95e2e1c2b",
      "transactionType": "CALL",
      "contractName": null,
      "contractAddress": "0x59ff05691a0f0c0e5a8bea315aa8ebcb934fffdf",
      "function": "addPosition(address,uint256,uint256)",
      "arguments": [
        "0x8888888888888888888888888888888888888888",
        "505600000000",
        "800000000000"
      ],
      "transaction": {
        "from": "0x76bf0f26a080ec0dbe68c842c99b7f6a7cb116db",
        "to": "0x59ff05691a0f0c0e5a8bea315aa8ebcb934fffdf",
        "gas": "0x2ffdf",
        "value": "0x0",
        "input": "0xcff07fd1000000000000000000000000888888888888888888888888888888888888888800000000000000000000000000000000000000000000000000000075b81bc000000000000000000000000000000000000000000000000000000000ba43b74000",
        "nonce": "0xc60",
        "chainId": "0x14a34"
      },
      "additionalContracts": [],
      "isFixedGasLimit": false
    },
    {
      "hash": "0x1cfe5090a8dedeebdc8cfc59ec47ff9f8488602e9d71c8633e7d672632cff243",
      "transactionType": "CALL",
      "contractName": null,
      "contractAddress": "0x59ff05691a0f0c0e5a8bea315aa8ebcb934fffdf",
      "function": "setPoolStats(uint256,uint256)",
      "arguments": [
        "1000000000000",
        "650000000000"
      ],
      "transaction": {
        "from": "0x76bf0f26a080ec0dbe68c842c99b7f6a7cb116db",
        "to": "0x59ff05691a0f0c0e5a8bea315aa8ebcb934fffdf",
        "gas": "0xa170",
        "value": "0x0",
        "input": "0x1a72bfa5000000000000000000000000000000000000000000000000000000e8d4a51000000000000000000000000000000000000000000000000000000000975704e400",
        "nonce": "0xc61",
        "chainId": "0x14a34"
      },
      "additionalContracts": [],
      "isFixedGasLimit": false
    }
  ],
  "receipts": [
    {
      "status": "0x1",
      "cumulativeGasUsed": "0x26c311",
      "logs": [
        {
          "address": "0x59ff05691a0f0c0e5a8bea315aa8ebcb934fffdf",
          "topics": [
            "0xf892d24af1786b0b833e995fdf35947f490f0088846c9793725ad219af9f6306"
          ],
          "data": "0x",
          "blockHash": "0x7db04a80712a78728cf26f1aced74f177f7261e2672b535a6ce9a9781d9e343f",
          "blockNumber": "0x24be2f8",
          "blockTimestamp": "0x69ab24d0",
          "transactionHash": "0xae8a9966361821926d9ccea128943c37b87eb528efd4a501f9f78fd16158f552",
          "transactionIndex": "0x14",
          "logIndex": "0x52",
          "removed": false
        }
      ],
      "logsBloom": "0x00000000000000000000000000000000000000000000000000000000000000000020000000000000000000000000000000000000000000000000000000000000000000000000000000000000000000000000000000000000000000000000000000000000000000000000000000000000000000000000000000000000000000000000000000000000000000000000400000000000000000000000000000000000000000000000000000000000800000000000000000000000000000000000000000000000000000000000000000000000000000000020000000000000000000000000000000000000000000200000004000000000000000000000000000000000",
      "type": "0x2",
      "transactionHash": "0xae8a9966361821926d9ccea128943c37b87eb528efd4a501f9f78fd16158f552",
      "transactionIndex": "0x14",
      "blockHash": "0x7db04a80712a78728cf26f1aced74f177f7261e2672b535a6ce9a9781d9e343f",
      "blockNumber": "0x24be2f8",
      "gasUsed": "0x67ba",
      "effectiveGasPrice": "0x5b8d80",
      "blobGasUsed": "0x364c",
      "from": "0x76bf0f26a080ec0dbe68c842c99b7f6a7cb116db",
      "to": "0x59ff05691a0f0c0e5a8bea315aa8ebcb934fffdf",
      "contractAddress": null,
      "daFootprintGasScalar": "0x8b",
      "l1BaseFeeScalar": "0x44d",
      "l1BlobBaseFee": "0x16b1",
      "l1BlobBaseFeeScalar": "0xa118b",
      "l1Fee": "0x8694f",
      "l1GasPrice": "0x17466",
      "l1GasUsed": "0x640"
    },
    {
      "status": "0x1",
      "cumulativeGasUsed": "0x28e40f",
      "logs": [
        {
          "address": "0x59ff05691a0f0c0e5a8bea315aa8ebcb934fffdf",
          "topics": [
            "0xe09c1fea8318354f0053fdd68105c144cc6c6989d6518c5934868930d966ed20",
            "0x0000000000000000000000000000000000000000000000000000000000000000",
            "0x0000000000000000000000001111111111111111111111111111111111111111"
          ],
          "data": "0x0000000000000000000000000000000000000000000000000000008a94af4000000000000000000000000000000000000000000000000000000000ba43b74000",
          "blockHash": "0x0000000000000000000000000000000000000000000000000000000000000000",
          "blockNumber": "0x24be2f8",
          "blockTimestamp": "0x69ab24d0",
          "transactionHash": "0xd7bbbbdf94115c59690d90429d125bd07fac83fc22388626956c4e6ef57a01d1",
          "transactionIndex": "0x15",
          "logIndex": "0x53",
          "removed": false
        }
      ],
      "logsBloom": "0x00000000000000000000000000000000000000000000000000000000000000000000000000000000000000000000000000000000000000000000000000000000000000000000000000000000000000000000000000000000000000000000000000000000020000000000000000000800000000008000000000000000000200000000000000000000100000000000000000000000000000000000008000000000240000000000000000000000800000000000000000000000000000000000000000000000000000000000000000000000000000000020000000000000000020000000000000000000000000000000004000000000000000000000000000000000",
      "type": "0x2",
      "transactionHash": "0xd7bbbbdf94115c59690d90429d125bd07fac83fc22388626956c4e6ef57a01d1",
      "transactionIndex": "0x15",
      "blockHash": "0x0000000000000000000000000000000000000000000000000000000000000000",
      "blockNumber": "0x24be2f8",
      "gasUsed": "0x220fe",
      "effectiveGasPrice": "0x5b8d80",
      "blobGasUsed": "0x364c",
      "from": "0x76bf0f26a080ec0dbe68c842c99b7f6a7cb116db",
      "to": "0x59ff05691a0f0c0e5a8bea315aa8ebcb934fffdf",
      "contractAddress": null,
      "daFootprintGasScalar": "0x8b",
      "l1BaseFeeScalar": "0x44d",
      "l1BlobBaseFee": "0x16b1",
      "l1BlobBaseFeeScalar": "0xa118b",
      "l1Fee": "0x8694f",
      "l1GasPrice": "0x17466",
      "l1GasUsed": "0x640"
    },
    {
      "status": "0x1",
      "cumulativeGasUsed": "0x5a18eb",
      "logs": [
        {
          "address": "0x59ff05691a0f0c0e5a8bea315aa8ebcb934fffdf",
          "topics": [
            "0xe09c1fea8318354f0053fdd68105c144cc6c6989d6518c5934868930d966ed20",
            "0x0000000000000000000000000000000000000000000000000000000000000001",
            "0x0000000000000000000000002222222222222222222222222222222222222222"
          ],
          "data": "0x0000000000000000000000000000000000000000000000000000008c12278000000000000000000000000000000000000000000000000000000000ba43b74000",
          "blockHash": "0x0000000000000000000000000000000000000000000000000000000000000000",
          "blockNumber": "0x24be2f8",
          "blockTimestamp": "0x69ab24d0",
          "transactionHash": "0x1190f82f7d28145781352de02c8f75e94fb24a4d4a7e0d9d910a1603b479092d",
          "transactionIndex": "0x25",
          "logIndex": "0x90",
          "removed": false
        }
      ],
      "logsBloom": "0x00000000000000000000000000000000000000000000000000000000000000000000000000000000000000000000000000080000000000000000000020040000000000000000000000000000000000000000000000040000000000000000000000000000000000000000000000000000000000008000000000000000000000000000000000000000100000000000000000000000000000000000008000000000000000000000000000000000800000000000000000000000000000000000000000000000000000000000000000000000000000000020000000000000000040000000000000000000000000000000004000000800000000000000000000000000",
      "type": "0x2",
      "transactionHash": "0x1190f82f7d28145781352de02c8f75e94fb24a4d4a7e0d9d910a1603b479092d",
      "transactionIndex": "0x25",
      "blockHash": "0x0000000000000000000000000000000000000000000000000000000000000000",
      "blockNumber": "0x24be2f8",
      "gasUsed": "0x22bee",
      "effectiveGasPrice": "0x5b8d80",
      "blobGasUsed": "0x364c",
      "from": "0x76bf0f26a080ec0dbe68c842c99b7f6a7cb116db",
      "to": "0x59ff05691a0f0c0e5a8bea315aa8ebcb934fffdf",
      "contractAddress": null,
      "daFootprintGasScalar": "0x8b",
      "l1BaseFeeScalar": "0x44d",
      "l1BlobBaseFee": "0x16b1",
      "l1BlobBaseFeeScalar": "0xa118b",
      "l1Fee": "0x8694f",
      "l1GasPrice": "0x17466",
      "l1GasUsed": "0x640"
    },
    {
      "status": "0x1",
      "cumulativeGasUsed": "0x5c44d9",
      "logs": [
        {
          "address": "0x59ff05691a0f0c0e5a8bea315aa8ebcb934fffdf",
          "topics": [
            "0xe09c1fea8318354f0053fdd68105c144cc6c6989d6518c5934868930d966ed20",
            "0x0000000000000000000000000000000000000000000000000000000000000002",
            "0x0000000000000000000000003333333333333333333333333333333333333333"
          ],
          "data": "0x0000000000000000000000000000000000000000000000000000008d8f9fc000000000000000000000000000000000000000000000000000000000ba43b74000",
          "blockHash": "0x0000000000000000000000000000000000000000000000000000000000000000",
          "blockNumber": "0x24be2f8",
          "blockTimestamp": "0x69ab24d0",
          "transactionHash": "0x119ee3ac1d38bf0cbce387aedd9617218c1695a9117472a1b7a993bbaad003a1",
          "transactionIndex": "0x26",
          "logIndex": "0x91",
          "removed": false
        }
      ],
      "logsBloom": "0x04000000000000000000000000000002000000000000000000000000000000000000000000000000000000000000000000000000000004000000000000000000000000000000000000000000000000000000000000000000000000000000000000000000000000000000000000000000000000008000000000000000000000000000000000000000100000000000000000000000000000000000008000000000000000000000000000000100800000000000000000000000000000000000000000000000000000000000000000000000000000000020000000000000000000000000000000000000000000000000004000000000108000000000000000000000",
      "type": "0x2",
      "transactionHash": "0x119ee3ac1d38bf0cbce387aedd9617218c1695a9117472a1b7a993bbaad003a1",
      "transactionIndex": "0x26",
      "blockHash": "0x0000000000000000000000000000000000000000000000000000000000000000",
      "blockNumber": "0x24be2f8",
      "gasUsed": "0x22bee",
      "effectiveGasPrice": "0x5b8d80",
      "blobGasUsed": "0x364c",
      "from": "0x76bf0f26a080ec0dbe68c842c99b7f6a7cb116db",
      "to": "0x59ff05691a0f0c0e5a8bea315aa8ebcb934fffdf",
      "contractAddress": null,
      "daFootprintGasScalar": "0x8b",
      "l1BaseFeeScalar": "0x44d",
      "l1BlobBaseFee": "0x16b1",
      "l1BlobBaseFeeScalar": "0xa118b",
      "l1Fee": "0x8694f",
      "l1GasPrice": "0x17466",
      "l1GasUsed": "0x640"
    },
    {
      "status": "0x1",
      "cumulativeGasUsed": "0x5e70bb",
      "logs": [
        {
          "address": "0x59ff05691a0f0c0e5a8bea315aa8ebcb934fffdf",
          "topics": [
            "0xe09c1fea8318354f0053fdd68105c144cc6c6989d6518c5934868930d966ed20",
            "0x0000000000000000000000000000000000000000000000000000000000000003",
            "0x0000000000000000000000004444444444444444444444444444444444444444"
          ],
          "data": "0x0000000000000000000000000000000000000000000000000000007d2b750000000000000000000000000000000000000000000000000000000000ba43b74000",
          "blockHash": "0x0000000000000000000000000000000000000000000000000000000000000000",
          "blockNumber": "0x24be2f8",
          "blockTimestamp": "0x69ab24d0",
          "transactionHash": "0x43e75ecbc20a9530d2c06c817d07ef46421d61170d35b9582ae74ca30478e70a",
          "transactionIndex": "0x27",
          "logIndex": "0x92",
          "removed": false
        }
      ],
      "logsBloom": "0x00000000000000000000000000000000000000000000000000000000000000000200000000000000000000000000000000000000020000000000000000000000000000000000000000000000000000000000000000000000000000000000000000000000000080000000000000000000000000008000000000000000000000000000000000000000100000000000000000000000000000000000008000000000000000000000000000000000800000000000000000800000000000000000400000000000000000000000000000000040000000000020000000000000000000000000000000000000000000000000004000000000000000000000000000000000",
      "type": "0x2",
      "transactionHash": "0x43e75ecbc20a9530d2c06c817d07ef46421d61170d35b9582ae74ca30478e70a",
      "transactionIndex": "0x27",
      "blockHash": "0x0000000000000000000000000000000000000000000000000000000000000000",
      "blockNumber": "0x24be2f8",
      "gasUsed": "0x22be2",
      "effectiveGasPrice": "0x5b8d80",
      "blobGasUsed": "0x364c",
      "from": "0x76bf0f26a080ec0dbe68c842c99b7f6a7cb116db",
      "to": "0x59ff05691a0f0c0e5a8bea315aa8ebcb934fffdf",
      "contractAddress": null,
      "daFootprintGasScalar": "0x8b",
      "l1BaseFeeScalar": "0x44d",
      "l1BlobBaseFee": "0x16b1",
      "l1BlobBaseFeeScalar": "0xa118b",
      "l1Fee": "0x8694f",
      "l1GasPrice": "0x17466",
      "l1GasUsed": "0x640"
    },
    {
      "status": "0x1",
      "cumulativeGasUsed": "0x609ca9",
      "logs": [
        {
          "address": "0x59ff05691a0f0c0e5a8bea315aa8ebcb934fffdf",
          "topics": [
            "0xe09c1fea8318354f0053fdd68105c144cc6c6989d6518c5934868930d966ed20",
            "0x0000000000000000000000000000000000000000000000000000000000000004",
            "0x0000000000000000000000005555555555555555555555555555555555555555"
          ],
          "data": "0x0000000000000000000000000000000000000000000000000000007ea8ed4000000000000000000000000000000000000000000000000000000000ba43b74000",
          "blockHash": "0x0000000000000000000000000000000000000000000000000000000000000000",
          "blockNumber": "0x24be2f8",
          "blockTimestamp": "0x69ab24d0",
          "transactionHash": "0xc91fb01c970b907247e8b4d02d2223772dc5c3b36119d1e180d2f65d17a28753",
          "transactionIndex": "0x28",
          "logIndex": "0x93",
          "removed": false
        }
      ],
      "logsBloom": "0x00000000000000000000000000000000000000000000000000000000000000000000000000000000000000000000000000000000040000000000000000000000000000000000000000000000000000000000000000000000000000000000000008000000000000000000000000000000000001008000000000000000000000000000000000000000100000000000000000000000000000000000008000000000000000000000000000000000800000000000000000000000002000000000000000000000000000000000000000000000000000008020000000000000000000000000000800000000000000000000004000000000000000000000000000000000",
      "type": "0x2",
      "transactionHash": "0xc91fb01c970b907247e8b4d02d2223772dc5c3b36119d1e180d2f65d17a28753",
      "transactionIndex": "0x28",
      "blockHash": "0x0000000000000000000000000000000000000000000000000000000000000000",
      "blockNumber": "0x24be2f8",
      "gasUsed": "0x22bee",
      "effectiveGasPrice": "0x5b8d80",
      "blobGasUsed": "0x364c",
      "from": "0x76bf0f26a080ec0dbe68c842c99b7f6a7cb116db",
      "to": "0x59ff05691a0f0c0e5a8bea315aa8ebcb934fffdf",
      "contractAddress": null,
      "daFootprintGasScalar": "0x8b",
      "l1BaseFeeScalar": "0x44d",
      "l1BlobBaseFee": "0x16b1",
      "l1BlobBaseFeeScalar": "0xa118b",
      "l1Fee": "0x8694f",
      "l1GasPrice": "0x17466",
      "l1GasUsed": "0x640"
    },
    {
      "status": "0x1",
      "cumulativeGasUsed": "0x62c897",
      "logs": [
        {
          "address": "0x59ff05691a0f0c0e5a8bea315aa8ebcb934fffdf",
          "topics": [
            "0xe09c1fea8318354f0053fdd68105c144cc6c6989d6518c5934868930d966ed20",
            "0x0000000000000000000000000000000000000000000000000000000000000005",
            "0x0000000000000000000000006666666666666666666666666666666666666666"
          ],
          "data": "0x0000000000000000000000000000000000000000000000000000008026658000000000000000000000000000000000000000000000000000000000ba43b74000",
          "blockHash": "0x0000000000000000000000000000000000000000000000000000000000000000",
          "blockNumber": "0x24be2f8",
          "blockTimestamp": "0x69ab24d0",
          "transactionHash": "0x20da49e10b5a8b85a4dbe27a4772834d03488766bed9f3ca7996523e66d2a7a4",
          "transactionIndex": "0x29",
          "logIndex": "0x94",
          "removed": false
        }
      ],
      "logsBloom": "0x00000000000000000000000000000040000000000000000000000000000200000000000000000000000000000000000000000000000000000000000000000000000010000000000000000000000000000000000000000000000000000000000000000000000000000000000000000000000000008000000000000000000000000000000000000000100000000000001000000800000000000000008000000000000000000000000000000000800040000000000000000000000000000000000000000000000000000000000000000000000000000020000000000000000000000000000000000000000000000000004000000000000000000000000000000000",
      "type": "0x2",
      "transactionHash": "0x20da49e10b5a8b85a4dbe27a4772834d03488766bed9f3ca7996523e66d2a7a4",
      "transactionIndex": "0x29",
      "blockHash": "0x0000000000000000000000000000000000000000000000000000000000000000",
      "blockNumber": "0x24be2f8",
      "gasUsed": "0x22bee",
      "effectiveGasPrice": "0x5b8d80",
      "blobGasUsed": "0x364c",
      "from": "0x76bf0f26a080ec0dbe68c842c99b7f6a7cb116db",
      "to": "0x59ff05691a0f0c0e5a8bea315aa8ebcb934fffdf",
      "contractAddress": null,
      "daFootprintGasScalar": "0x8b",
      "l1BaseFeeScalar": "0x44d",
      "l1BlobBaseFee": "0x16b1",
      "l1BlobBaseFeeScalar": "0xa118b",
      "l1Fee": "0x8694f",
      "l1GasPrice": "0x17466",
      "l1GasUsed": "0x640"
    },
    {
      "status": "0x1",
      "cumulativeGasUsed": "0x64f485",
      "logs": [
        {
          "address": "0x59ff05691a0f0c0e5a8bea315aa8ebcb934fffdf",
          "topics": [
            "0xe09c1fea8318354f0053fdd68105c144cc6c6989d6518c5934868930d966ed20",
            "0x0000000000000000000000000000000000000000000000000000000000000006",
            "0x0000000000000000000000007777777777777777777777777777777777777777"
          ],
          "data": "0x00000000000000000000000000000000000000000000000000000078b30c4000000000000000000000000000000000000000000000000000000000ba43b74000",
          "blockHash": "0x0000000000000000000000000000000000000000000000000000000000000000",
          "blockNumber": "0x24be2f8",
          "blockTimestamp": "0x69ab24d0",
          "transactionHash": "0xf9873cbf209afae6b836070c118e2ab9c82815019c4fe9ab5bf269247328512e",
          "transactionIndex": "0x2a",
          "logIndex": "0x95",
          "removed": false
        }
      ],
      "logsBloom": "0x00000000000000000000000000000000000000000000000000000000000000000000000000000000000000000000000000000000000400000000000000000000000000000000000000000000000000000000000000000000000000000000000000000000000000000000000000000000000000008000000000000000000000000000000400000008100000000000000000000000000008000000088000000000000000000000000000000000800000000000000000000000000000080000000000000000000000000000000000000000000000000020000000000000000000000000000000000000000000000000004000000000000000000000000000000000",
      "type": "0x2",
      "transactionHash": "0xf9873cbf209afae6b836070c118e2ab9c82815019c4fe9ab5bf269247328512e",
      "transactionIndex": "0x2a",
      "blockHash": "0x0000000000000000000000000000000000000000000000000000000000000000",
      "blockNumber": "0x24be2f8",
      "gasUsed": "0x22bee",
      "effectiveGasPrice": "0x5b8d80",
      "blobGasUsed": "0x364c",
      "from": "0x76bf0f26a080ec0dbe68c842c99b7f6a7cb116db",
      "to": "0x59ff05691a0f0c0e5a8bea315aa8ebcb934fffdf",
      "contractAddress": null,
      "daFootprintGasScalar": "0x8b",
      "l1BaseFeeScalar": "0x44d",
      "l1BlobBaseFee": "0x16b1",
      "l1BlobBaseFeeScalar": "0xa118b",
      "l1Fee": "0x8694f",
      "l1GasPrice": "0x17466",
      "l1GasUsed": "0x640"
    },
    {
      "status": "0x1",
      "cumulativeGasUsed": "0x672073",
      "logs": [
        {
          "address": "0x59ff05691a0f0c0e5a8bea315aa8ebcb934fffdf",
          "topics": [
            "0xe09c1fea8318354f0053fdd68105c144cc6c6989d6518c5934868930d966ed20",
            "0x0000000000000000000000000000000000000000000000000000000000000007",
            "0x0000000000000000000000008888888888888888888888888888888888888888"
          ],
          "data": "0x00000000000000000000000000000000000000000000000000000075b81bc000000000000000000000000000000000000000000000000000000000ba43b74000",
          "blockHash": "0x7db04a80712a78728cf26f1aced74f177f7261e2672b535a6ce9a9781d9e343f",
          "blockNumber": "0x24be2f8",
          "blockTimestamp": "0x69ab24d0",
          "transactionHash": "0x29cd86749bc3f4a3bd912c30d5a1259c5410b8163fd704c5bd2ef8f95e2e1c2b",
          "transactionIndex": "0x2b",
          "logIndex": "0x96",
          "removed": false
        }
      ],
      "logsBloom": "0x00000000000000000000000000200000000000000000000000000000000000000000000000000000000000000000000000001000000000000000000000000000000020000000000000000000000000000000000000000000000000000000000000000000000000000000000000000000000000008000000000000000000000000000000000000000100000000002000000000000000000000000008000000000000000000000000000002000800000000000000000000000000000000000000000000000000000000000000000000000000000000020000000000100000000000000000000000000000000000000004000000000000000000000000000000000",
      "type": "0x2",
      "transactionHash": "0x29cd86749bc3f4a3bd912c30d5a1259c5410b8163fd704c5bd2ef8f95e2e1c2b",
      "transactionIndex": "0x2b",
      "blockHash": "0x7db04a80712a78728cf26f1aced74f177f7261e2672b535a6ce9a9781d9e343f",
      "blockNumber": "0x24be2f8",
      "gasUsed": "0x22bee",
      "effectiveGasPrice": "0x5b8d80",
      "blobGasUsed": "0x364c",
      "from": "0x76bf0f26a080ec0dbe68c842c99b7f6a7cb116db",
      "to": "0x59ff05691a0f0c0e5a8bea315aa8ebcb934fffdf",
      "contractAddress": null,
      "daFootprintGasScalar": "0x8b",
      "l1BaseFeeScalar": "0x44d",
      "l1BlobBaseFee": "0x16b1",
      "l1BlobBaseFeeScalar": "0xa118b",
      "l1Fee": "0x8694f",
      "l1GasPrice": "0x17466",
      "l1GasUsed": "0x640"
    },
    {
      "status": "0x1",
      "cumulativeGasUsed": "0x7b9ae2",
      "logs": [],
      "logsBloom": "0x00000000000000000000000000000000000000000000000000000000000000000000000000000000000000000000000000000000000000000000000000000000000000000000000000000000000000000000000000000000000000000000000000000000000000000000000000000000000000000000000000000000000000000000000000000000000000000000000000000000000000000000000000000000000000000000000000000000000000000000000000000000000000000000000000000000000000000000000000000000000000000000000000000000000000000000000000000000000000000000000000000000000000000000000000000000",
      "type": "0x2",
      "transactionHash": "0x1cfe5090a8dedeebdc8cfc59ec47ff9f8488602e9d71c8633e7d672632cff243",
      "transactionIndex": "0x33",
      "blockHash": "0x0000000000000000000000000000000000000000000000000000000000000000",
      "blockNumber": "0x24be2f8",
      "gasUsed": "0x6e63",
      "effectiveGasPrice": "0x5b8d80",
      "blobGasUsed": "0x364c",
      "from": "0x76bf0f26a080ec0dbe68c842c99b7f6a7cb116db",
      "to": "0x59ff05691a0f0c0e5a8bea315aa8ebcb934fffdf",
      "contractAddress": null,
      "daFootprintGasScalar": "0x8b",
      "l1BaseFeeScalar": "0x44d",
      "l1BlobBaseFee": "0x16b1",
      "l1BlobBaseFeeScalar": "0xa118b",
      "l1Fee": "0x8694f",
      "l1GasPrice": "0x17466",
      "l1GasUsed": "0x640"
    }
  ],
  "libraries": [],
  "pending": [],
  "returns": {},
  "timestamp": 1772823760608,
  "chain": 84532,
  "commit": "8a48d39"
}