{
  "transactions": [
    {
      "hash": "0x67e09d510addd6c5980a432e95488f72ee39dc351c1e8521da90731ad7140fd2",
      "transactionType": "CALL",
      "contractName": "MockInvalendProtocol",
      "contractAddress": "0x6912ded3394af5b02edf63e4a05547d5d810c298",
      "function": "setPositionCollateral(uint256,uint256)",
      "arguments": [
        "5",
        "524800000000"
      ],
      "transaction": {
        "from": "0x76bf0f26a080ec0dbe68c842c99b7f6a7cb116db",
        "to": "0x6912ded3394af5b02edf63e4a05547d5d810c298",
        "gas": "0xa846",
        "value": "0x0",
        "input": "0x3fa017f300000000000000000000000000000000000000000000000000000000000000050000000000000000000000000000000000000000000000000000007a30848000",
        "nonce": "0xc4b",
        "chainId": "0x14a34"
      },
      "additionalContracts": [],
      "isFixedGasLimit": false
    },
    {
      "hash": "0x052f8e9f2b08e27d4a5f0f9a9d8564b5f216e00a3e75f79fed113685a3761105",
      "transactionType": "CALL",
      "contractName": "MockInvalendProtocol",
      "contractAddress": "0x6912ded3394af5b02edf63e4a05547d5d810c298",
      "function": "setPositionCollateral(uint256,uint256)",
      "arguments": [
        "6",
        "512000000000"
      ],
      "transaction": {
        "from": "0x76bf0f26a080ec0dbe68c842c99b7f6a7cb116db",
        "to": "0x6912ded3394af5b02edf63e4a05547d5d810c298",
        "gas": "0xa835",
        "value": "0x0",
        "input": "0x3fa017f300000000000000000000000000000000000000000000000000000000000000060000000000000000000000000000000000000000000000000000007735940000",
        "nonce": "0xc4c",
        "chainId": "0x14a34"
      },
      "additionalContracts": [],
      "isFixedGasLimit": false
    },
    {
      "hash": "0x2dde0fc3ad1cce58623223464a77a30ef0a5f1fbde1bfcc0a93914f15ffb567d",
      "transactionType": "CALL",
      "contractName": "MockInvalendProtocol",
      "contractAddress": "0x6912ded3394af5b02edf63e4a05547d5d810c298",
      "function": "setPositionCollateral(uint256,uint256)",
      "arguments": [
        "7",
        "499200000000"
      ],
      "transaction": {
        "from": "0x76bf0f26a080ec0dbe68c842c99b7f6a7cb116db",
        "to": "0x6912ded3394af5b02edf63e4a05547d5d810c298",
        "gas": "0xa846",
        "value": "0x0",
        "input": "0x3fa017f30000000000000000000000000000000000000000000000000000000000000007000000000000000000000000000000000000000000000000000000743aa38000",
        "nonce": "0xc4d",
        "chainId": "0x14a34"
      },
      "additionalContracts": [],
      "isFixedGasLimit": false
    },
    {
      "hash": "0x7988b23355b5a0a385587cc51ce42d52fcb093df5f0194a686a255bc158e64f5",
      "transactionType": "CALL",
      "contractName": "MockInvalendProtocol",
      "contractAddress": "0x6912ded3394af5b02edf63e4a05547d5d810c298",
      "function": "setPoolStats(uint256,uint256)",
      "arguments": [
        "1000000000000",
        "870000000000"
      ],
      "transaction": {
        "from": "0x76bf0f26a080ec0dbe68c842c99b7f6a7cb116db",
        "to": "0x6912ded3394af5b02edf63e4a05547d5d810c298",
        "gas": "0xb16f",
        "value": "0x0",
        "input": "0x1a72bfa5000000000000000000000000000000000000000000000000000000e8d4a51000000000000000000000000000000000000000000000000000000000ca900a7c00",
        "nonce": "0xc4e",
        "chainId": "0x14a34"
      },
      "additionalContracts": [],
      "isFixedGasLimit": false
    }
  ],
  "receipts": [
    {
      "status": "0x1",
      "cumulativeGasUsed": "0x51c252",
      "logs": [],
      "logsBloom": "0x00000000000000000000000000000000000000000000000000000000000000000000000000000000000000000000000000000000000000000000000000000000000000000000000000000000000000000000000000000000000000000000000000000000000000000000000000000000000000000000000000000000000000000000000000000000000000000000000000000000000000000000000000000000000000000000000000000000000000000000000000000000000000000000000000000000000000000000000000000000000000000000000000000000000000000000000000000000000000000000000000000000000000000000000000000000",
      "type": "0x2",
      "transactionHash": "0x67e09d510addd6c5980a432e95488f72ee39dc351c1e8521da90731ad7140fd2",
      "transactionIndex": "0x1d",
      "blockHash": "0xff2b88ccbdd63ac9a4775435bdf3e55ac818f4dbd6f1fd5b3fc4dbc443b680f3",
      "blockNumber": "0x24bdd65",
      "gasUsed": "0x79d4",
      "effectiveGasPrice": "0x5b8d80",
      "blobGasUsed": "0x364c",
      "from": "0x76bf0f26a080ec0dbe68c842c99b7f6a7cb116db",
      "to": "0x6912ded3394af5b02edf63e4a05547d5d810c298",
      "contractAddress": null,
      "daFootprintGasScalar": "0x8b",
      "l1BaseFeeScalar": "0x44d",
      "l1BlobBaseFee": "0xab8e",
      "l1BlobBaseFeeScalar": "0xa118b",
      "l1Fee": "0x3b52ab",
      "l1GasPrice": "0x892f2",
      "l1GasUsed": "0x640"
    },
    {
      "status": "0x1",
      "cumulativeGasUsed": "0x523c1a",
      "logs": [],
      "logsBloom": "0x00000000000000000000000000000000000000000000000000000000000000000000000000000000000000000000000000000000000000000000000000000000000000000000000000000000000000000000000000000000000000000000000000000000000000000000000000000000000000000000000000000000000000000000000000000000000000000000000000000000000000000000000000000000000000000000000000000000000000000000000000000000000000000000000000000000000000000000000000000000000000000000000000000000000000000000000000000000000000000000000000000000000000000000000000000000",
      "type": "0x2",
      "transactionHash": "0x052f8e9f2b08e27d4a5f0f9a9d8564b5f216e00a3e75f79fed113685a3761105",
      "transactionIndex": "0x1e",
      "blockHash": "0xff2b88ccbdd63ac9a4775435bdf3e55ac818f4dbd6f1fd5b3fc4dbc443b680f3",
      "blockNumber": "0x24bdd65",
      "gasUsed": "0x79c8",
      "effectiveGasPrice": "0x5b8d80",
      "blobGasUsed": "0x364c",
      "from": "0x76bf0f26a080ec0dbe68c842c99b7f6a7cb116db",
      "to": "0x6912ded3394af5b02edf63e4a05547d5d810c298",
      "contractAddress": null,
      "daFootprintGasScalar": "0x8b",
      "l1BaseFeeScalar": "0x44d",
      "l1BlobBaseFee": "0xab8e",
      "l1BlobBaseFeeScalar": "0xa118b",
      "l1Fee": "0x3b52ab",
      "l1GasPrice": "0x892f2",
      "l1GasUsed": "0x640"
    },
    {
      "status": "0x1",
      "cumulativeGasUsed": "0x52b5ee",
      "logs": [],
      "logsBloom": "0x00000000000000000000000000000000000000000000000000000000000000000000000000000000000000000000000000000000000000000000000000000000000000000000000000000000000000000000000000000000000000000000000000000000000000000000000000000000000000000000000000000000000000000000000000000000000000000000000000000000000000000000000000000000000000000000000000000000000000000000000000000000000000000000000000000000000000000000000000000000000000000000000000000000000000000000000000000000000000000000000000000000000000000000000000000000",
      "type": "0x2",
      "transactionHash": "0x2dde0fc3ad1cce58623223464a77a30ef0a5f1fbde1bfcc0a93914f15ffb567d",
      "transactionIndex": "0x1f",
      "blockHash": "0xff2b88ccbdd63ac9a4775435bdf3e55ac818f4dbd6f1fd5b3fc4dbc443b680f3",
      "blockNumber": "0x24bdd65",
      "gasUsed": "0x79d4",
      "effectiveGasPrice": "0x5b8d80",
      "blobGasUsed": "0x364c",
      "from": "0x76bf0f26a080ec0dbe68c842c99b7f6a7cb116db",
      "to": "0x6912ded3394af5b02edf63e4a05547d5d810c298",
      "contractAddress": null,
      "daFootprintGasScalar": "0x8b",
      "l1BaseFeeScalar": "0x44d",
      "l1BlobBaseFee": "0xab8e",
      "l1BlobBaseFeeScalar": "0xa118b",
      "l1Fee": "0x3b52ab",
      "l1GasPrice": "0x892f2",
      "l1GasUsed": "0x640"
    },
    {
      "status": "0x1",
      "cumulativeGasUsed": "0x532f41",
      "logs": [],
      "logsBloom": "0x00000000000000000000000000000000000000000000000000000000000000000000000000000000000000000000000000000000000000000000000000000000000000000000000000000000000000000000000000000000000000000000000000000000000000000000000000000000000000000000000000000000000000000000000000000000000000000000000000000000000000000000000000000000000000000000000000000000000000000000000000000000000000000000000000000000000000000000000000000000000000000000000000000000000000000000000000000000000000000000000000000000000000000000000000000000",
      "type": "0x2",
      "transactionHash": "0x7988b23355b5a0a385587cc51ce42d52fcb093df5f0194a686a255bc158e64f5",
      "transactionIndex": "0x20",
      "blockHash": "0xff2b88ccbdd63ac9a4775435bdf3e55ac818f4dbd6f1fd5b3fc4dbc443b680f3",
      "blockNumber": "0x24bdd65",
      "gasUsed": "0x7953",
      "effectiveGasPrice": "0x5b8d80",
      "blobGasUsed": "0x364c",
      "from": "0x76bf0f26a080ec0dbe68c842c99b7f6a7cb116db",
      "to": "0x6912ded3394af5b02edf63e4a05547d5d810c298",
      "contractAddress": null,
      "daFootprintGasScalar": "0x8b",
      "l1BaseFeeScalar": "0x44d",
      "l1BlobBaseFee": "0xab8e",
      "l1BlobBaseFeeScalar": "0xa118b",
      "l1Fee": "0x3b52ab",
      "l1GasPrice": "0x892f2",
      "l1GasUsed": "0x640"
    }
  ],
  "libraries": [],
  "pending": [],
  "returns": {},
  "timestamp": 1772820905929,
  "chain": 84532,
  "commit": "8a48d39"
}