{
  "transactions": [
    {
      "hash": "0x1179a26f35b2207d369bf64e4ce6c8acbd84ac321d0c1d021a5b2005e5d67168",
      "transactionType": "CALL",
      "contractName": "MockInvalendProtocol",
      "contractAddress": "0x6912ded3394af5b02edf63e4a05547d5d810c298",
      "function": "setPositionCollateral(uint256,uint256)",
      "arguments": [
        "5",
        "524800000000"
      ],
      "transaction": {
        "from": "0x76bf0f26a080ec0dbe68c842c99b7f6a7cb116db",
        "to": "0x6912ded3394af5b02edf63e4a05547d5d810c298",
        "gas": "0x992a",
        "value": "0x0",
        "input": "0x3fa017f300000000000000000000000000000000000000000000000000000000000000050000000000000000000000000000000000000000000000000000007a30848000",
        "nonce": "0xc4f",
        "chainId": "0x14a34"
      },
      "additionalContracts": [],
      "isFixedGasLimit": false
    },
    {
      "hash": "0x40a878b08529ad154c9de405d0ddc63ab2e7e2f5e72d292f2363e770307e556a",
      "transactionType": "CALL",
      "contractName": "MockInvalendProtocol",
      "contractAddress": "0x6912ded3394af5b02edf63e4a05547d5d810c298",
      "function": "setPositionCollateral(uint256,uint256)",
      "arguments": [
        "6",
        "512000000000"
      ],
      "transaction": {
        "from": "0x76bf0f26a080ec0dbe68c842c99b7f6a7cb116db",
        "to": "0x6912ded3394af5b02edf63e4a05547d5d810c298",
        "gas": "0x9919",
        "value": "0x0",
        "input": "0x3fa017f300000000000000000000000000000000000000000000000000000000000000060000000000000000000000000000000000000000000000000000007735940000",
        "nonce": "0xc50",
        "chainId": "0x14a34"
      },
      "additionalContracts": [],
      "isFixedGasLimit": false
    },
    {
      "hash": "0xe85436b41f2064a4114c4aeffbdcd5e2bad4bf025e54ecb0f2d64c279666c059",
      "transactionType": "CALL",
      "contractName": "MockInvalendProtocol",
      "contractAddress": "0x6912ded3394af5b02edf63e4a05547d5d810c298",
      "function": "setPositionCollateral(uint256,uint256)",
      "arguments": [
        "7",
        "499200000000"
      ],
      "transaction": {
        "from": "0x76bf0f26a080ec0dbe68c842c99b7f6a7cb116db",
        "to": "0x6912ded3394af5b02edf63e4a05547d5d810c298",
        "gas": "0x992a",
        "value": "0x0",
        "input": "0x3fa017f30000000000000000000000000000000000000000000000000000000000000007000000000000000000000000000000000000000000000000000000743aa38000",
        "nonce": "0xc51",
        "chainId": "0x14a34"
      },
      "additionalContracts": [],
      "isFixedGasLimit": false
    },
    {
      "hash": "0xe304b5d0ff09720b571546bffb7913844e2b88424e5e429942ec63775956bd4b",
      "transactionType": "CALL",
      "contractName": "MockInvalendProtocol",
      "contractAddress": "0x6912ded3394af5b02edf63e4a05547d5d810c298",
      "function": "setPoolStats(uint256,uint256)",
      "arguments": [
        "1000000000000",
        "870000000000"
      ],
      "transaction": {
        "from": "0x76bf0f26a080ec0dbe68c842c99b7f6a7cb116db",
        "to": "0x6912ded3394af5b02edf63e4a05547d5d810c298",
        "gas": "0xa170",
        "value": "0x0",
        "input": "0x1a72bfa5000000000000000000000000000000000000000000000000000000e8d4a51000000000000000000000000000000000000000000000000000000000ca900a7c00",
        "nonce": "0xc52",
        "chainId": "0x14a34"
      },
      "additionalContracts": [],
      "isFixedGasLimit": false
    }
  ],
  "receipts": [
    {
      "status": "0x1",
      "cumulativeGasUsed": "0x4ca429",
      "logs": [],
      "logsBloom": "0x00000000000000000000000000000000000000000000000000000000000000000000000000000000000000000000000000000000000000000000000000000000000000000000000000000000000000000000000000000000000000000000000000000000000000000000000000000000000000000000000000000000000000000000000000000000000000000000000000000000000000000000000000000000000000000000000000000000000000000000000000000000000000000000000000000000000000000000000000000000000000000000000000000000000000000000000000000000000000000000000000000000000000000000000000000000",
      "type": "0x2",
      "transactionHash": "0x1179a26f35b2207d369bf64e4ce6c8acbd84ac321d0c1d021a5b2005e5d67168",
      "transactionIndex": "0x19",
      "blockHash": "0x0000000000000000000000000000000000000000000000000000000000000000",
      "blockNumber": "0x24bde3d",
      "gasUsed": "0x6ee4",
      "effectiveGasPrice": "0x5b8d80",
      "blobGasUsed": "0x364c",
      "from": "0x76bf0f26a080ec0dbe68c842c99b7f6a7cb116db",
      "to": "0x6912ded3394af5b02edf63e4a05547d5d810c298",
      "contractAddress": null,
      "daFootprintGasScalar": "0x8b",
      "l1BaseFeeScalar": "0x44d",
      "l1BlobBaseFee": "0x5be1",
      "l1BlobBaseFeeScalar": "0xa118b",
      "l1Fee": "0x21e70e",
      "l1GasPrice": "0x5cd40",
      "l1GasUsed": "0x640"
    },
    {
      "status": "0x1",
      "cumulativeGasUsed": "0x4d1301",
      "logs": [],
      "logsBloom": "0x00000000000000000000000000000000000000000000000000000000000000000000000000000000000000000000000000000000000000000000000000000000000000000000000000000000000000000000000000000000000000000000000000000000000000000000000000000000000000000000000000000000000000000000000000000000000000000000000000000000000000000000000000000000000000000000000000000000000000000000000000000000000000000000000000000000000000000000000000000000000000000000000000000000000000000000000000000000000000000000000000000000000000000000000000000000",
      "type": "0x2",
      "transactionHash": "0x40a878b08529ad154c9de405d0ddc63ab2e7e2f5e72d292f2363e770307e556a",
      "transactionIndex": "0x1a",
      "blockHash": "0x0000000000000000000000000000000000000000000000000000000000000000",
      "blockNumber": "0x24bde3d",
      "gasUsed": "0x6ed8",
      "effectiveGasPrice": "0x5b8d80",
      "blobGasUsed": "0x364c",
      "from": "0x76bf0f26a080ec0dbe68c842c99b7f6a7cb116db",
      "to": "0x6912ded3394af5b02edf63e4a05547d5d810c298",
      "contractAddress": null,
      "daFootprintGasScalar": "0x8b",
      "l1BaseFeeScalar": "0x44d",
      "l1BlobBaseFee": "0x5be1",
      "l1BlobBaseFeeScalar": "0xa118b",
      "l1Fee": "0x21e70e",
      "l1GasPrice": "0x5cd40",
      "l1GasUsed": "0x640"
    },
    {
      "status": "0x1",
      "cumulativeGasUsed": "0x4d81e5",
      "logs": [],
      "logsBloom": "0x00000000000000000000000000000000000000000000000000000000000000000000000000000000000000000000000000000000000000000000000000000000000000000000000000000000000000000000000000000000000000000000000000000000000000000000000000000000000000000000000000000000000000000000000000000000000000000000000000000000000000000000000000000000000000000000000000000000000000000000000000000000000000000000000000000000000000000000000000000000000000000000000000000000000000000000000000000000000000000000000000000000000000000000000000000000",
      "type": "0x2",
      "transactionHash": "0xe85436b41f2064a4114c4aeffbdcd5e2bad4bf025e54ecb0f2d64c279666c059",
      "transactionIndex": "0x1b",
      "blockHash": "0x0000000000000000000000000000000000000000000000000000000000000000",
      "blockNumber": "0x24bde3d",
      "gasUsed": "0x6ee4",
      "effectiveGasPrice": "0x5b8d80",
      "blobGasUsed": "0x364c",
      "from": "0x76bf0f26a080ec0dbe68c842c99b7f6a7cb116db",
      "to": "0x6912ded3394af5b02edf63e4a05547d5d810c298",
      "contractAddress": null,
      "daFootprintGasScalar": "0x8b",
      "l1BaseFeeScalar": "0x44d",
      "l1BlobBaseFee": "0x5be1",
      "l1BlobBaseFeeScalar": "0xa118b",
      "l1Fee": "0x21e70e",
      "l1GasPrice": "0x5cd40",
      "l1GasUsed": "0x640"
    },
    {
      "status": "0x1",
      "cumulativeGasUsed": "0x4df048",
      "logs": [],
      "logsBloom": "0x00000000000000000000000000000000000000000000000000000000000000000000000000000000000000000000000000000000000000000000000000000000000000000000000000000000000000000000000000000000000000000000000000000000000000000000000000000000000000000000000000000000000000000000000000000000000000000000000000000000000000000000000000000000000000000000000000000000000000000000000000000000000000000000000000000000000000000000000000000000000000000000000000000000000000000000000000000000000000000000000000000000000000000000000000000000",
      "type": "0x2",
      "transactionHash": "0xe304b5d0ff09720b571546bffb7913844e2b88424e5e429942ec63775956bd4b",
      "transactionIndex": "0x1c",
      "blockHash": "0x0000000000000000000000000000000000000000000000000000000000000000",
      "blockNumber": "0x24bde3d",
      "gasUsed": "0x6e63",
      "effectiveGasPrice": "0x5b8d80",
      "blobGasUsed": "0x364c",
      "from": "0x76bf0f26a080ec0dbe68c842c99b7f6a7cb116db",
      "to": "0x6912ded3394af5b02edf63e4a05547d5d810c298",
      "contractAddress": null,
      "daFootprintGasScalar": "0x8b",
      "l1BaseFeeScalar": "0x44d",
      "l1BlobBaseFee": "0x5be1",
      "l1BlobBaseFeeScalar": "0xa118b",
      "l1Fee": "0x21e70e",
      "l1GasPrice": "0x5cd40",
      "l1GasUsed": "0x640"
    }
  ],
  "libraries": [],
  "pending": [],
  "returns": {},
  "timestamp": 1772821337497,
  "chain": 84532,
  "commit": "8a48d39"
}